{
  "address": "0x443F12c2A93f81444e3Fc8Ac898FeF74dEE9753c",
  "abi": [
    {
      "inputs": [
        {
          "internalType": "address",
          "name": "_priceFeedAddress",
          "type": "address"
        },
        {
          "internalType": "string",
          "name": "_lowSVG",
          "type": "string"
        },
        {
          "internalType": "string",
          "name": "_highSVG",
          "type": "string"
        }
      ],
      "stateMutability": "nonpayable",
      "type": "constructor"
    },
    {
      "inputs": [],
      "name": "ERC721Metadata__URI_QueryFor_NonExistentToken",
      "type": "error"
    },
    {
      "anonymous": false,
      "inputs": [
        {
          "indexed": true,
          "internalType": "address",
          "name": "owner",
          "type": "address"
        },
        {
          "indexed": true,
          "internalType": "address",
          "name": "approved",
          "type": "address"
        },
        {
          "indexed": true,
          "internalType": "uint256",
          "name": "tokenId",
          "type": "uint256"
        }
      ],
      "name": "Approval",
      "type": "event"
    },
    {
      "anonymous": false,
      "inputs": [
        {
          "indexed": true,
          "internalType": "address",
          "name": "owner",
          "type": "address"
        },
        {
          "indexed": true,
          "internalType": "address",
          "name": "operator",
          "type": "address"
        },
        {
          "indexed": false,
          "internalType": "bool",
          "name": "approved",
          "type": "bool"
        }
      ],
      "name": "ApprovalForAll",
      "type": "event"
    },
    {
      "anonymous": false,
      "inputs": [
        {
          "indexed": true,
          "internalType": "uint256",
          "name": "tokenId",
          "type": "uint256"
        },
        {
          "indexed": false,
          "internalType": "int256",
          "name": "highPrice",
          "type": "int256"
        }
      ],
      "name": "CreatedSVGNFT",
      "type": "event"
    },
    {
      "anonymous": false,
      "inputs": [
        {
          "indexed": true,
          "internalType": "address",
          "name": "from",
          "type": "address"
        },
        {
          "indexed": true,
          "internalType": "address",
          "name": "to",
          "type": "address"
        },
        {
          "indexed": true,
          "internalType": "uint256",
          "name": "tokenId",
          "type": "uint256"
        }
      ],
      "name": "Transfer",
      "type": "event"
    },
    {
      "inputs": [
        {
          "internalType": "address",
          "name": "to",
          "type": "address"
        },
        {
          "internalType": "uint256",
          "name": "tokenId",
          "type": "uint256"
        }
      ],
      "name": "approve",
      "outputs": [],
      "stateMutability": "nonpayable",
      "type": "function"
    },
    {
      "inputs": [
        {
          "internalType": "address",
          "name": "owner",
          "type": "address"
        }
      ],
      "name": "balanceOf",
      "outputs": [
        {
          "internalType": "uint256",
          "name": "",
          "type": "uint256"
        }
      ],
      "stateMutability": "view",
      "type": "function"
    },
    {
      "inputs": [
        {
          "internalType": "uint256",
          "name": "tokenId",
          "type": "uint256"
        }
      ],
      "name": "getApproved",
      "outputs": [
        {
          "internalType": "address",
          "name": "",
          "type": "address"
        }
      ],
      "stateMutability": "view",
      "type": "function"
    },
    {
      "inputs": [],
      "name": "getHighImageSVG",
      "outputs": [
        {
          "internalType": "string",
          "name": "",
          "type": "string"
        }
      ],
      "stateMutability": "view",
      "type": "function"
    },
    {
      "inputs": [],
      "name": "getPriceFeedAddress",
      "outputs": [
        {
          "internalType": "address",
          "name": "",
          "type": "address"
        }
      ],
      "stateMutability": "view",
      "type": "function"
    },
    {
      "inputs": [],
      "name": "getTokenCounter",
      "outputs": [
        {
          "internalType": "uint256",
          "name": "",
          "type": "uint256"
        }
      ],
      "stateMutability": "view",
      "type": "function"
    },
    {
      "inputs": [],
      "name": "getlowImageSVG",
      "outputs": [
        {
          "internalType": "string",
          "name": "",
          "type": "string"
        }
      ],
      "stateMutability": "view",
      "type": "function"
    },
    {
      "inputs": [
        {
          "internalType": "address",
          "name": "owner",
          "type": "address"
        },
        {
          "internalType": "address",
          "name": "operator",
          "type": "address"
        }
      ],
      "name": "isApprovedForAll",
      "outputs": [
        {
          "internalType": "bool",
          "name": "",
          "type": "bool"
        }
      ],
      "stateMutability": "view",
      "type": "function"
    },
    {
      "inputs": [
        {
          "internalType": "int256",
          "name": "highValue",
          "type": "int256"
        }
      ],
      "name": "mintNft",
      "outputs": [],
      "stateMutability": "nonpayable",
      "type": "function"
    },
    {
      "inputs": [],
      "name": "name",
      "outputs": [
        {
          "internalType": "string",
          "name": "",
          "type": "string"
        }
      ],
      "stateMutability": "view",
      "type": "function"
    },
    {
      "inputs": [
        {
          "internalType": "uint256",
          "name": "tokenId",
          "type": "uint256"
        }
      ],
      "name": "ownerOf",
      "outputs": [
        {
          "internalType": "address",
          "name": "",
          "type": "address"
        }
      ],
      "stateMutability": "view",
      "type": "function"
    },
    {
      "inputs": [
        {
          "internalType": "uint256",
          "name": "",
          "type": "uint256"
        }
      ],
      "name": "s_tokenIdToHighPrice",
      "outputs": [
        {
          "internalType": "int256",
          "name": "",
          "type": "int256"
        }
      ],
      "stateMutability": "view",
      "type": "function"
    },
    {
      "inputs": [
        {
          "internalType": "address",
          "name": "from",
          "type": "address"
        },
        {
          "internalType": "address",
          "name": "to",
          "type": "address"
        },
        {
          "internalType": "uint256",
          "name": "tokenId",
          "type": "uint256"
        }
      ],
      "name": "safeTransferFrom",
      "outputs": [],
      "stateMutability": "nonpayable",
      "type": "function"
    },
    {
      "inputs": [
        {
          "internalType": "address",
          "name": "from",
          "type": "address"
        },
        {
          "internalType": "address",
          "name": "to",
          "type": "address"
        },
        {
          "internalType": "uint256",
          "name": "tokenId",
          "type": "uint256"
        },
        {
          "internalType": "bytes",
          "name": "_data",
          "type": "bytes"
        }
      ],
      "name": "safeTransferFrom",
      "outputs": [],
      "stateMutability": "nonpayable",
      "type": "function"
    },
    {
      "inputs": [
        {
          "internalType": "address",
          "name": "operator",
          "type": "address"
        },
        {
          "internalType": "bool",
          "name": "approved",
          "type": "bool"
        }
      ],
      "name": "setApprovalForAll",
      "outputs": [],
      "stateMutability": "nonpayable",
      "type": "function"
    },
    {
      "inputs": [
        {
          "internalType": "bytes4",
          "name": "interfaceId",
          "type": "bytes4"
        }
      ],
      "name": "supportsInterface",
      "outputs": [
        {
          "internalType": "bool",
          "name": "",
          "type": "bool"
        }
      ],
      "stateMutability": "view",
      "type": "function"
    },
    {
      "inputs": [
        {
          "internalType": "string",
          "name": "_svg",
          "type": "string"
        }
      ],
      "name": "svgToImageURI",
      "outputs": [
        {
          "internalType": "string",
          "name": "",
          "type": "string"
        }
      ],
      "stateMutability": "pure",
      "type": "function"
    },
    {
      "inputs": [],
      "name": "symbol",
      "outputs": [
        {
          "internalType": "string",
          "name": "",
          "type": "string"
        }
      ],
      "stateMutability": "view",
      "type": "function"
    },
    {
      "inputs": [
        {
          "internalType": "uint256",
          "name": "tokenId",
          "type": "uint256"
        }
      ],
      "name": "tokenURI",
      "outputs": [
        {
          "internalType": "string",
          "name": "",
          "type": "string"
        }
      ],
      "stateMutability": "view",
      "type": "function"
    },
    {
      "inputs": [
        {
          "internalType": "address",
          "name": "from",
          "type": "address"
        },
        {
          "internalType": "address",
          "name": "to",
          "type": "address"
        },
        {
          "internalType": "uint256",
          "name": "tokenId",
          "type": "uint256"
        }
      ],
      "name": "transferFrom",
      "outputs": [],
      "stateMutability": "nonpayable",
      "type": "function"
    }
  ],
  "transactionHash": "0x1906b1b440d5f8be94d80da23c35dfcee19dbf7de5daf2531cfc5ed97b24fe10",
  "args": [
    "0x694AA1769357215DE4FAC081bf1f309aDC325306",
    "<?xml version=\"1.0\" standalone=\"no\"?>\n<svg width=\"1024px\" height=\"1024px\" viewBox=\"0 0 1024 1024\" xmlns=\"http://www.w3.org/2000/svg\">\n  <path fill=\"#333\" d=\"M512 64C264.6 64 64 264.6 64 512s200.6 448 448 448 448-200.6 448-448S759.4 64 512 64zm0 820c-205.4 0-372-166.6-372-372s166.6-372 372-372 372 166.6 372 372-166.6 372-372 372z\"/>\n  <path fill=\"#E6E6E6\" d=\"M512 140c-205.4 0-372 166.6-372 372s166.6 372 372 372 372-166.6 372-372-166.6-372-372-372zM288 421a48.01 48.01 0 0 1 96 0 48.01 48.01 0 0 1-96 0zm376 272h-48.1c-4.2 0-7.8-3.2-8.1-7.4C604 636.1 562.5 597 512 597s-92.1 39.1-95.8 88.6c-.3 4.2-3.9 7.4-8.1 7.4H360a8 8 0 0 1-8-8.4c4.4-84.3 74.5-151.6 160-151.6s155.6 67.3 160 151.6a8 8 0 0 1-8 8.4zm24-224a48.01 48.01 0 0 1 0-96 48.01 48.01 0 0 1 0 96z\"/>\n  <path fill=\"#333\" d=\"M288 421a48 48 0 1 0 96 0 48 48 0 1 0-96 0zm224 112c-85.5 0-155.6 67.3-160 151.6a8 8 0 0 0 8 8.4h48.1c4.2 0 7.8-3.2 8.1-7.4 3.7-49.5 45.3-88.6 95.8-88.6s92 39.1 95.8 88.6c.3 4.2 3.9 7.4 8.1 7.4H664a8 8 0 0 0 8-8.4C667.6 600.3 597.5 533 512 533zm128-112a48 48 0 1 0 96 0 48 48 0 1 0-96 0z\"/>\n</svg>\n",
    "<svg viewBox=\"0 0 200 200\" width=\"400\"  height=\"400\" xmlns=\"http://www.w3.org/2000/svg\">\n  <circle cx=\"100\" cy=\"100\" fill=\"yellow\" r=\"78\" stroke=\"black\" stroke-width=\"3\"/>\n  <g class=\"eyes\">\n    <circle cx=\"61\" cy=\"82\" r=\"12\"/>\n    <circle cx=\"127\" cy=\"82\" r=\"12\"/>\n  </g>\n  <path d=\"m136.81 116.53c.69 26.17-64.11 42-81.52-.73\" style=\"fill:none; stroke: black; stroke-width: 3;\"/>\n</svg>"
  ],
  "numDeployments": 1,
  "solcInputHash": "739bc968add751dbdfa3b5b2a41920b6",
  "bytecode": "0x60a06040523480156200001157600080fd5b5060405162003a5e38038062003a5e833981810160405281019062000037919062000655565b6040518060400160405280600f81526020017f44796e616d696320535647204e465400000000000000000000000000000000008152506040518060400160405280600381526020017f44534e00000000000000000000000000000000000000000000000000000000008152508160009080519060200190620000bb929190620003a3565b508060019080519060200190620000d4929190620003a3565b50505060006006819055508273ffffffffffffffffffffffffffffffffffffffff1660808173ffffffffffffffffffffffffffffffffffffffff1660601b8152505062000127826200017160201b60201c565b600790805190602001906200013e929190620003a3565b5062000150816200017160201b60201c565b6008908051906020019062000167929190620003a3565b5050505062000940565b60606000620001ac836040516020016200018c91906200073c565b6040516020818303038152906040526200021560201b6200110a1760201c565b905060006040518060400160405280601a81526020017f646174613a696d6167652f7376672b786d6c3b6261736536342c00000000000081525090508082604051602001620001fd92919062000755565b60405160208183030381529060405292505050919050565b60606000825114156200023a576040518060200160405280600081525090506200039e565b600060405180606001604052806040815260200162003a1e60409139905060006003600285516200026c9190620007b6565b62000278919062000842565b60046200028691906200087a565b90506000602082620002999190620007b6565b67ffffffffffffffff811115620002b557620002b4620004e7565b5b6040519080825280601f01601f191660200182016040528015620002e85781602001600182028036833780820191505090505b509050818152600183018586518101602084015b8183101562000359576003830192508251603f8160121c168501518253600182019150603f81600c1c168501518253600182019150603f8160061c168501518253600182019150603f8116850151825360018201915050620002fc565b600389510660018114620003765760028114620003875762000392565b613d3d60f01b600283035262000392565b603d60f81b60018303525b50505050508093505050505b919050565b828054620003b1906200090a565b90600052602060002090601f016020900481019282620003d5576000855562000421565b82601f10620003f057805160ff191683800117855562000421565b8280016001018555821562000421579182015b828111156200042057825182559160200191906001019062000403565b5b50905062000430919062000434565b5090565b5b808211156200044f57600081600090555060010162000435565b5090565b6000604051905090565b600080fd5b600080fd5b600073ffffffffffffffffffffffffffffffffffffffff82169050919050565b6000620004948262000467565b9050919050565b620004a68162000487565b8114620004b257600080fd5b50565b600081519050620004c6816200049b565b92915050565b600080fd5b600080fd5b6000601f19601f8301169050919050565b7f4e487b7100000000000000000000000000000000000000000000000000000000600052604160045260246000fd5b6200052182620004d6565b810181811067ffffffffffffffff82111715620005435762000542620004e7565b5b80604052505050565b60006200055862000453565b905062000566828262000516565b919050565b600067ffffffffffffffff821115620005895762000588620004e7565b5b6200059482620004d6565b9050602081019050919050565b60005b83811015620005c1578082015181840152602081019050620005a4565b83811115620005d1576000848401525b50505050565b6000620005ee620005e8846200056b565b6200054c565b9050828152602081018484840111156200060d576200060c620004d1565b5b6200061a848285620005a1565b509392505050565b600082601f8301126200063a5762000639620004cc565b5b81516200064c848260208601620005d7565b91505092915050565b6000806000606084860312156200067157620006706200045d565b5b60006200068186828701620004b5565b935050602084015167ffffffffffffffff811115620006a557620006a462000462565b5b620006b38682870162000622565b925050604084015167ffffffffffffffff811115620006d757620006d662000462565b5b620006e58682870162000622565b9150509250925092565b600081519050919050565b600081905092915050565b60006200071282620006ef565b6200071e8185620006fa565b935062000730818560208601620005a1565b80840191505092915050565b60006200074a828462000705565b915081905092915050565b600062000763828562000705565b915062000771828462000705565b91508190509392505050565b6000819050919050565b7f4e487b7100000000000000000000000000000000000000000000000000000000600052601160045260246000fd5b6000620007c3826200077d565b9150620007d0836200077d565b9250827fffffffffffffffffffffffffffffffffffffffffffffffffffffffffffffffff0382111562000808576200080762000787565b5b828201905092915050565b7f4e487b7100000000000000000000000000000000000000000000000000000000600052601260045260246000fd5b60006200084f826200077d565b91506200085c836200077d565b9250826200086f576200086e62000813565b5b828204905092915050565b600062000887826200077d565b915062000894836200077d565b9250817fffffffffffffffffffffffffffffffffffffffffffffffffffffffffffffffff0483118215151615620008d057620008cf62000787565b5b828202905092915050565b7f4e487b7100000000000000000000000000000000000000000000000000000000600052602260045260246000fd5b600060028204905060018216806200092357607f821691505b602082108114156200093a5762000939620008db565b5b50919050565b60805160601c6130b862000966600039600081816107220152610e2301526130b86000f3fe608060405234801561001057600080fd5b506004361061012c5760003560e01c80636352211e116100ad578063a7bff3df11610071578063a7bff3df14610343578063b88d4fde14610361578063c87b56dd1461037d578063e020c060146103ad578063e985e9c5146103dd5761012c565b80636352211e1461028b5780636e02007d146102bb57806370a08231146102d957806395d89b4114610309578063a22cb465146103275761012c565b80631e930812116100f45780631e930812146101e957806323b872dd146102055780632cc6b6fe1461022157806330d871c61461023f57806342842e0e1461026f5761012c565b806301ffc9a71461013157806306fdde0314610161578063081812fc1461017f578063095ea7b3146101af5780630f0f30b2146101cb575b600080fd5b61014b60048036038101906101469190611c4f565b61040d565b6040516101589190611c97565b60405180910390f35b6101696104ef565b6040516101769190611d4b565b60405180910390f35b61019960048036038101906101949190611da3565b610581565b6040516101a69190611e11565b60405180910390f35b6101c960048036038101906101c49190611e58565b610606565b005b6101d361071e565b6040516101e09190611e11565b60405180910390f35b61020360048036038101906101fe9190611ece565b610746565b005b61021f600480360381019061021a9190611efb565b6107be565b005b61022961081e565b6040516102369190611d4b565b60405180910390f35b61025960048036038101906102549190612083565b6108b0565b6040516102669190611d4b565b60405180910390f35b61028960048036038101906102849190611efb565b610943565b005b6102a560048036038101906102a09190611da3565b610963565b6040516102b29190611e11565b60405180910390f35b6102c3610a15565b6040516102d091906120db565b60405180910390f35b6102f360048036038101906102ee91906120f6565b610a1f565b60405161030091906120db565b60405180910390f35b610311610ad7565b60405161031e9190611d4b565b60405180910390f35b610341600480360381019061033c919061214f565b610b69565b005b61034b610cea565b6040516103589190611d4b565b60405180910390f35b61037b60048036038101906103769190612230565b610d7c565b005b61039760048036038101906103929190611da3565b610dde565b6040516103a49190611d4b565b60405180910390f35b6103c760048036038101906103c29190611da3565b61105e565b6040516103d491906122c2565b60405180910390f35b6103f760048036038101906103f291906122dd565b611076565b6040516104049190611c97565b60405180910390f35b60007f80ac58cd000000000000000000000000000000000000000000000000000000007bffffffffffffffffffffffffffffffffffffffffffffffffffffffff1916827bffffffffffffffffffffffffffffffffffffffffffffffffffffffff191614806104d857507f5b5e139f000000000000000000000000000000000000000000000000000000007bffffffffffffffffffffffffffffffffffffffffffffffffffffffff1916827bffffffffffffffffffffffffffffffffffffffffffffffffffffffff1916145b806104e857506104e782611283565b5b9050919050565b6060600080546104fe9061234c565b80601f016020809104026020016040519081016040528092919081815260200182805461052a9061234c565b80156105775780601f1061054c57610100808354040283529160200191610577565b820191906000526020600020905b81548152906001019060200180831161055a57829003601f168201915b5050505050905090565b600061058c826112ed565b6105cb576040517f08c379a00000000000000000000000000000000000000000000000000000000081526004016105c2906123f0565b60405180910390fd5b6004600083815260200190815260200160002060009054906101000a900473ffffffffffffffffffffffffffffffffffffffff169050919050565b600061061182610963565b90508073ffffffffffffffffffffffffffffffffffffffff168373ffffffffffffffffffffffffffffffffffffffff161415610682576040517f08c379a000000000000000000000000000000000000000000000000000000000815260040161067990612482565b60405180910390fd5b8073ffffffffffffffffffffffffffffffffffffffff166106a1611359565b73ffffffffffffffffffffffffffffffffffffffff1614806106d057506106cf816106ca611359565b611076565b5b61070f576040517f08c379a000000000000000000000000000000000000000000000000000000000815260040161070690612514565b60405180910390fd5b6107198383611361565b505050565b60007f0000000000000000000000000000000000000000000000000000000000000000905090565b806009600060065481526020019081526020016000208190555061076c3360065461141a565b600160065461077b9190612563565b6006819055506006547fca4c5b29cf38d57d51df90120e5b5b4066c5a1ab8b17f4d4652c08f5a121f2f5826040516107b391906122c2565b60405180910390a250565b6107cf6107c9611359565b82611438565b61080e576040517f08c379a00000000000000000000000000000000000000000000000000000000081526004016108059061262b565b60405180910390fd5b610819838383611516565b505050565b60606008805461082d9061234c565b80601f01602080910402602001604051908101604052809291908181526020018280546108599061234c565b80156108a65780601f1061087b576101008083540402835291602001916108a6565b820191906000526020600020905b81548152906001019060200180831161088957829003601f168201915b5050505050905090565b606060006108dc836040516020016108c89190612687565b60405160208183030381529060405261110a565b905060006040518060400160405280601a81526020017f646174613a696d6167652f7376672b786d6c3b6261736536342c0000000000008152509050808260405160200161092b92919061269e565b60405160208183030381529060405292505050919050565b61095e83838360405180602001604052806000815250610d7c565b505050565b6000806002600084815260200190815260200160002060009054906101000a900473ffffffffffffffffffffffffffffffffffffffff169050600073ffffffffffffffffffffffffffffffffffffffff168173ffffffffffffffffffffffffffffffffffffffff161415610a0c576040517f08c379a0000000000000000000000000000000000000000000000000000000008152600401610a0390612734565b60405180910390fd5b80915050919050565b6000600654905090565b60008073ffffffffffffffffffffffffffffffffffffffff168273ffffffffffffffffffffffffffffffffffffffff161415610a90576040517f08c379a0000000000000000000000000000000000000000000000000000000008152600401610a87906127c6565b60405180910390fd5b600360008373ffffffffffffffffffffffffffffffffffffffff1673ffffffffffffffffffffffffffffffffffffffff168152602001908152602001600020549050919050565b606060018054610ae69061234c565b80601f0160208091040260200160405190810160405280929190818152602001828054610b129061234c565b8015610b5f5780601f10610b3457610100808354040283529160200191610b5f565b820191906000526020600020905b815481529060010190602001808311610b4257829003601f168201915b5050505050905090565b610b71611359565b73ffffffffffffffffffffffffffffffffffffffff168273ffffffffffffffffffffffffffffffffffffffff161415610bdf576040517f08c379a0000000000000000000000000000000000000000000000000000000008152600401610bd690612832565b60405180910390fd5b8060056000610bec611359565b73ffffffffffffffffffffffffffffffffffffffff1673ffffffffffffffffffffffffffffffffffffffff16815260200190815260200160002060008473ffffffffffffffffffffffffffffffffffffffff1673ffffffffffffffffffffffffffffffffffffffff16815260200190815260200160002060006101000a81548160ff0219169083151502179055508173ffffffffffffffffffffffffffffffffffffffff16610c99611359565b73ffffffffffffffffffffffffffffffffffffffff167f17307eab39ab6107e8899845ad3d59bd9653f200f220920489ca2b5937696c3183604051610cde9190611c97565b60405180910390a35050565b606060078054610cf99061234c565b80601f0160208091040260200160405190810160405280929190818152602001828054610d259061234c565b8015610d725780601f10610d4757610100808354040283529160200191610d72565b820191906000526020600020905b815481529060010190602001808311610d5557829003601f168201915b5050505050905090565b610d8d610d87611359565b83611438565b610dcc576040517f08c379a0000000000000000000000000000000000000000000000000000000008152600401610dc39061262b565b60405180910390fd5b610dd884848484611772565b50505050565b6060610de9826112ed565b610e1f576040517f6df5edae00000000000000000000000000000000000000000000000000000000815260040160405180910390fd5b60007f000000000000000000000000000000000000000000000000000000000000000073ffffffffffffffffffffffffffffffffffffffff1663feaf968c6040518163ffffffff1660e01b815260040160a06040518083038186803b158015610e8757600080fd5b505afa158015610e9b573d6000803e3d6000fd5b505050506040513d601f19601f82011682018060405250810190610ebf91906128be565b505050915050600060078054610ed49061234c565b80601f0160208091040260200160405190810160405280929190818152602001828054610f009061234c565b8015610f4d5780601f10610f2257610100808354040283529160200191610f4d565b820191906000526020600020905b815481529060010190602001808311610f3057829003601f168201915b5050505050905060096000858152602001908152602001600020548212610ffc5760088054610f7b9061234c565b80601f0160208091040260200160405190810160405280929190818152602001828054610fa79061234c565b8015610ff45780601f10610fc957610100808354040283529160200191610ff4565b820191906000526020600020905b815481529060010190602001808311610fd757829003601f168201915b505050505090505b6110046117ce565b61103561100f6104ef565b83604051602001611021929190612b01565b60405160208183030381529060405261110a565b60405160200161104692919061269e565b60405160208183030381529060405292505050919050565b60096020528060005260406000206000915090505481565b6000600560008473ffffffffffffffffffffffffffffffffffffffff1673ffffffffffffffffffffffffffffffffffffffff16815260200190815260200160002060008373ffffffffffffffffffffffffffffffffffffffff1673ffffffffffffffffffffffffffffffffffffffff16815260200190815260200160002060009054906101000a900460ff16905092915050565b606060008251141561112d5760405180602001604052806000815250905061127e565b6000604051806060016040528060408152602001613043604091399050600060036002855161115c9190612563565b6111669190612b80565b60046111729190612bb1565b905060006020826111839190612563565b67ffffffffffffffff81111561119c5761119b611f58565b5b6040519080825280601f01601f1916602001820160405280156111ce5781602001600182028036833780820191505090505b509050818152600183018586518101602084015b8183101561123d576003830192508251603f8160121c168501518253600182019150603f81600c1c168501518253600182019150603f8160061c168501518253600182019150603f81168501518253600182019150506111e2565b600389510660018114611257576002811461126757611272565b613d3d60f01b6002830352611272565b603d60f81b60018303525b50505050508093505050505b919050565b60007f01ffc9a7000000000000000000000000000000000000000000000000000000007bffffffffffffffffffffffffffffffffffffffffffffffffffffffff1916827bffffffffffffffffffffffffffffffffffffffffffffffffffffffff1916149050919050565b60008073ffffffffffffffffffffffffffffffffffffffff166002600084815260200190815260200160002060009054906101000a900473ffffffffffffffffffffffffffffffffffffffff1673ffffffffffffffffffffffffffffffffffffffff1614159050919050565b600033905090565b816004600083815260200190815260200160002060006101000a81548173ffffffffffffffffffffffffffffffffffffffff021916908373ffffffffffffffffffffffffffffffffffffffff160217905550808273ffffffffffffffffffffffffffffffffffffffff166113d483610963565b73ffffffffffffffffffffffffffffffffffffffff167f8c5be1e5ebec7d5bd14f71427d1e84f3dd0314c0f7b2291e5b200ac8c7c3b92560405160405180910390a45050565b61143482826040518060200160405280600081525061180b565b5050565b6000611443826112ed565b611482576040517f08c379a000000000000000000000000000000000000000000000000000000000815260040161147990612c7d565b60405180910390fd5b600061148d83610963565b90508073ffffffffffffffffffffffffffffffffffffffff168473ffffffffffffffffffffffffffffffffffffffff1614806114fc57508373ffffffffffffffffffffffffffffffffffffffff166114e484610581565b73ffffffffffffffffffffffffffffffffffffffff16145b8061150d575061150c8185611076565b5b91505092915050565b8273ffffffffffffffffffffffffffffffffffffffff1661153682610963565b73ffffffffffffffffffffffffffffffffffffffff161461158c576040517f08c379a000000000000000000000000000000000000000000000000000000000815260040161158390612d0f565b60405180910390fd5b600073ffffffffffffffffffffffffffffffffffffffff168273ffffffffffffffffffffffffffffffffffffffff1614156115fc576040517f08c379a00000000000000000000000000000000000000000000000000000000081526004016115f390612da1565b60405180910390fd5b611607838383611866565b611612600082611361565b6001600360008573ffffffffffffffffffffffffffffffffffffffff1673ffffffffffffffffffffffffffffffffffffffff16815260200190815260200160002060008282546116629190612dc1565b925050819055506001600360008473ffffffffffffffffffffffffffffffffffffffff1673ffffffffffffffffffffffffffffffffffffffff16815260200190815260200160002060008282546116b99190612563565b92505081905550816002600083815260200190815260200160002060006101000a81548173ffffffffffffffffffffffffffffffffffffffff021916908373ffffffffffffffffffffffffffffffffffffffff160217905550808273ffffffffffffffffffffffffffffffffffffffff168473ffffffffffffffffffffffffffffffffffffffff167fddf252ad1be2c89b69c2b068fc378daa952ba7f163c4a11628f55a4df523b3ef60405160405180910390a4505050565b61177d848484611516565b6117898484848461186b565b6117c8576040517f08c379a00000000000000000000000000000000000000000000000000000000081526004016117bf90612e67565b60405180910390fd5b50505050565b60606040518060400160405280601d81526020017f646174613a6170706c69636174696f6e2f6a736f6e3b6261736536342c000000815250905090565b6118158383611a02565b611822600084848461186b565b611861576040517f08c379a000000000000000000000000000000000000000000000000000000000815260040161185890612e67565b60405180910390fd5b505050565b505050565b600061188c8473ffffffffffffffffffffffffffffffffffffffff16611bd0565b156119f5578373ffffffffffffffffffffffffffffffffffffffff1663150b7a026118b5611359565b8786866040518563ffffffff1660e01b81526004016118d79493929190612edc565b602060405180830381600087803b1580156118f157600080fd5b505af192505050801561192257506040513d601f19601f8201168201806040525081019061191f9190612f3d565b60015b6119a5573d8060008114611952576040519150601f19603f3d011682016040523d82523d6000602084013e611957565b606091505b5060008151141561199d576040517f08c379a000000000000000000000000000000000000000000000000000000000815260040161199490612e67565b60405180910390fd5b805181602001fd5b63150b7a0260e01b7bffffffffffffffffffffffffffffffffffffffffffffffffffffffff1916817bffffffffffffffffffffffffffffffffffffffffffffffffffffffff1916149150506119fa565b600190505b949350505050565b600073ffffffffffffffffffffffffffffffffffffffff168273ffffffffffffffffffffffffffffffffffffffff161415611a72576040517f08c379a0000000000000000000000000000000000000000000000000000000008152600401611a6990612fb6565b60405180910390fd5b611a7b816112ed565b15611abb576040517f08c379a0000000000000000000000000000000000000000000000000000000008152600401611ab290613022565b60405180910390fd5b611ac760008383611866565b6001600360008473ffffffffffffffffffffffffffffffffffffffff1673ffffffffffffffffffffffffffffffffffffffff1681526020019081526020016000206000828254611b179190612563565b92505081905550816002600083815260200190815260200160002060006101000a81548173ffffffffffffffffffffffffffffffffffffffff021916908373ffffffffffffffffffffffffffffffffffffffff160217905550808273ffffffffffffffffffffffffffffffffffffffff16600073ffffffffffffffffffffffffffffffffffffffff167fddf252ad1be2c89b69c2b068fc378daa952ba7f163c4a11628f55a4df523b3ef60405160405180910390a45050565b600080823b905060008111915050919050565b6000604051905090565b600080fd5b600080fd5b60007fffffffff0000000000000000000000000000000000000000000000000000000082169050919050565b611c2c81611bf7565b8114611c3757600080fd5b50565b600081359050611c4981611c23565b92915050565b600060208284031215611c6557611c64611bed565b5b6000611c7384828501611c3a565b91505092915050565b60008115159050919050565b611c9181611c7c565b82525050565b6000602082019050611cac6000830184611c88565b92915050565b600081519050919050565b600082825260208201905092915050565b60005b83811015611cec578082015181840152602081019050611cd1565b83811115611cfb576000848401525b50505050565b6000601f19601f8301169050919050565b6000611d1d82611cb2565b611d278185611cbd565b9350611d37818560208601611cce565b611d4081611d01565b840191505092915050565b60006020820190508181036000830152611d658184611d12565b905092915050565b6000819050919050565b611d8081611d6d565b8114611d8b57600080fd5b50565b600081359050611d9d81611d77565b92915050565b600060208284031215611db957611db8611bed565b5b6000611dc784828501611d8e565b91505092915050565b600073ffffffffffffffffffffffffffffffffffffffff82169050919050565b6000611dfb82611dd0565b9050919050565b611e0b81611df0565b82525050565b6000602082019050611e266000830184611e02565b92915050565b611e3581611df0565b8114611e4057600080fd5b50565b600081359050611e5281611e2c565b92915050565b60008060408385031215611e6f57611e6e611bed565b5b6000611e7d85828601611e43565b9250506020611e8e85828601611d8e565b9150509250929050565b6000819050919050565b611eab81611e98565b8114611eb657600080fd5b50565b600081359050611ec881611ea2565b92915050565b600060208284031215611ee457611ee3611bed565b5b6000611ef284828501611eb9565b91505092915050565b600080600060608486031215611f1457611f13611bed565b5b6000611f2286828701611e43565b9350506020611f3386828701611e43565b9250506040611f4486828701611d8e565b9150509250925092565b600080fd5b600080fd5b7f4e487b7100000000000000000000000000000000000000000000000000000000600052604160045260246000fd5b611f9082611d01565b810181811067ffffffffffffffff82111715611faf57611fae611f58565b5b80604052505050565b6000611fc2611be3565b9050611fce8282611f87565b919050565b600067ffffffffffffffff821115611fee57611fed611f58565b5b611ff782611d01565b9050602081019050919050565b82818337600083830152505050565b600061202661202184611fd3565b611fb8565b90508281526020810184848401111561204257612041611f53565b5b61204d848285612004565b509392505050565b600082601f83011261206a57612069611f4e565b5b813561207a848260208601612013565b91505092915050565b60006020828403121561209957612098611bed565b5b600082013567ffffffffffffffff8111156120b7576120b6611bf2565b5b6120c384828501612055565b91505092915050565b6120d581611d6d565b82525050565b60006020820190506120f060008301846120cc565b92915050565b60006020828403121561210c5761210b611bed565b5b600061211a84828501611e43565b91505092915050565b61212c81611c7c565b811461213757600080fd5b50565b60008135905061214981612123565b92915050565b6000806040838503121561216657612165611bed565b5b600061217485828601611e43565b92505060206121858582860161213a565b9150509250929050565b600067ffffffffffffffff8211156121aa576121a9611f58565b5b6121b382611d01565b9050602081019050919050565b60006121d36121ce8461218f565b611fb8565b9050828152602081018484840111156121ef576121ee611f53565b5b6121fa848285612004565b509392505050565b600082601f83011261221757612216611f4e565b5b81356122278482602086016121c0565b91505092915050565b6000806000806080858703121561224a57612249611bed565b5b600061225887828801611e43565b945050602061226987828801611e43565b935050604061227a87828801611d8e565b925050606085013567ffffffffffffffff81111561229b5761229a611bf2565b5b6122a787828801612202565b91505092959194509250565b6122bc81611e98565b82525050565b60006020820190506122d760008301846122b3565b92915050565b600080604083850312156122f4576122f3611bed565b5b600061230285828601611e43565b925050602061231385828601611e43565b9150509250929050565b7f4e487b7100000000000000000000000000000000000000000000000000000000600052602260045260246000fd5b6000600282049050600182168061236457607f821691505b602082108114156123785761237761231d565b5b50919050565b7f4552433732313a20617070726f76656420717565727920666f72206e6f6e657860008201527f697374656e7420746f6b656e0000000000000000000000000000000000000000602082015250565b60006123da602c83611cbd565b91506123e58261237e565b604082019050919050565b60006020820190508181036000830152612409816123cd565b9050919050565b7f4552433732313a20617070726f76616c20746f2063757272656e74206f776e6560008201527f7200000000000000000000000000000000000000000000000000000000000000602082015250565b600061246c602183611cbd565b915061247782612410565b604082019050919050565b6000602082019050818103600083015261249b8161245f565b9050919050565b7f4552433732313a20617070726f76652063616c6c6572206973206e6f74206f7760008201527f6e6572206e6f7220617070726f76656420666f7220616c6c0000000000000000602082015250565b60006124fe603883611cbd565b9150612509826124a2565b604082019050919050565b6000602082019050818103600083015261252d816124f1565b9050919050565b7f4e487b7100000000000000000000000000000000000000000000000000000000600052601160045260246000fd5b600061256e82611d6d565b915061257983611d6d565b9250827fffffffffffffffffffffffffffffffffffffffffffffffffffffffffffffffff038211156125ae576125ad612534565b5b828201905092915050565b7f4552433732313a207472616e736665722063616c6c6572206973206e6f74206f60008201527f776e6572206e6f7220617070726f766564000000000000000000000000000000602082015250565b6000612615603183611cbd565b9150612620826125b9565b604082019050919050565b6000602082019050818103600083015261264481612608565b9050919050565b600081905092915050565b600061266182611cb2565b61266b818561264b565b935061267b818560208601611cce565b80840191505092915050565b60006126938284612656565b915081905092915050565b60006126aa8285612656565b91506126b68284612656565b91508190509392505050565b7f4552433732313a206f776e657220717565727920666f72206e6f6e657869737460008201527f656e7420746f6b656e0000000000000000000000000000000000000000000000602082015250565b600061271e602983611cbd565b9150612729826126c2565b604082019050919050565b6000602082019050818103600083015261274d81612711565b9050919050565b7f4552433732313a2062616c616e636520717565727920666f7220746865207a6560008201527f726f206164647265737300000000000000000000000000000000000000000000602082015250565b60006127b0602a83611cbd565b91506127bb82612754565b604082019050919050565b600060208201905081810360008301526127df816127a3565b9050919050565b7f4552433732313a20617070726f766520746f2063616c6c657200000000000000600082015250565b600061281c601983611cbd565b9150612827826127e6565b602082019050919050565b6000602082019050818103600083015261284b8161280f565b9050919050565b600069ffffffffffffffffffff82169050919050565b61287181612852565b811461287c57600080fd5b50565b60008151905061288e81612868565b92915050565b6000815190506128a381611ea2565b92915050565b6000815190506128b881611d77565b92915050565b600080600080600060a086880312156128da576128d9611bed565b5b60006128e88882890161287f565b95505060206128f988828901612894565b945050604061290a888289016128a9565b935050606061291b888289016128a9565b925050608061292c8882890161287f565b9150509295509295909350565b7f7b226e616d65223a000000000000000000000000000000000000000000000000600082015250565b600061296f60088361264b565b915061297a82612939565b600882019050919050565b7f222c20226465736372697074696f6e223a22416e204e4654207468617420636860008201527f616e676573206261736564206f6e2074686520436861696e6c696e6b2046656560208201527f64222c2000000000000000000000000000000000000000000000000000000000604082015250565b6000612a0760448361264b565b9150612a1282612985565b604482019050919050565b7f2261747472696275746573223a205b7b2274726169745f74797065223a20226360008201527f6f6f6c6e657373222c202276616c7565223a203130307d5d2c2022696d61676560208201527f223a220000000000000000000000000000000000000000000000000000000000604082015250565b6000612a9f60438361264b565b9150612aaa82612a1d565b604382019050919050565b7f227d000000000000000000000000000000000000000000000000000000000000600082015250565b6000612aeb60028361264b565b9150612af682612ab5565b600282019050919050565b6000612b0c82612962565b9150612b188285612656565b9150612b23826129fa565b9150612b2e82612a92565b9150612b3a8284612656565b9150612b4582612ade565b91508190509392505050565b7f4e487b7100000000000000000000000000000000000000000000000000000000600052601260045260246000fd5b6000612b8b82611d6d565b9150612b9683611d6d565b925082612ba657612ba5612b51565b5b828204905092915050565b6000612bbc82611d6d565b9150612bc783611d6d565b9250817fffffffffffffffffffffffffffffffffffffffffffffffffffffffffffffffff0483118215151615612c0057612bff612534565b5b828202905092915050565b7f4552433732313a206f70657261746f7220717565727920666f72206e6f6e657860008201527f697374656e7420746f6b656e0000000000000000000000000000000000000000602082015250565b6000612c67602c83611cbd565b9150612c7282612c0b565b604082019050919050565b60006020820190508181036000830152612c9681612c5a565b9050919050565b7f4552433732313a207472616e73666572206f6620746f6b656e2074686174206960008201527f73206e6f74206f776e0000000000000000000000000000000000000000000000602082015250565b6000612cf9602983611cbd565b9150612d0482612c9d565b604082019050919050565b60006020820190508181036000830152612d2881612cec565b9050919050565b7f4552433732313a207472616e7366657220746f20746865207a65726f2061646460008201527f7265737300000000000000000000000000000000000000000000000000000000602082015250565b6000612d8b602483611cbd565b9150612d9682612d2f565b604082019050919050565b60006020820190508181036000830152612dba81612d7e565b9050919050565b6000612dcc82611d6d565b9150612dd783611d6d565b925082821015612dea57612de9612534565b5b828203905092915050565b7f4552433732313a207472616e7366657220746f206e6f6e20455243373231526560008201527f63656976657220696d706c656d656e7465720000000000000000000000000000602082015250565b6000612e51603283611cbd565b9150612e5c82612df5565b604082019050919050565b60006020820190508181036000830152612e8081612e44565b9050919050565b600081519050919050565b600082825260208201905092915050565b6000612eae82612e87565b612eb88185612e92565b9350612ec8818560208601611cce565b612ed181611d01565b840191505092915050565b6000608082019050612ef16000830187611e02565b612efe6020830186611e02565b612f0b60408301856120cc565b8181036060830152612f1d8184612ea3565b905095945050505050565b600081519050612f3781611c23565b92915050565b600060208284031215612f5357612f52611bed565b5b6000612f6184828501612f28565b91505092915050565b7f4552433732313a206d696e7420746f20746865207a65726f2061646472657373600082015250565b6000612fa0602083611cbd565b9150612fab82612f6a565b602082019050919050565b60006020820190508181036000830152612fcf81612f93565b9050919050565b7f4552433732313a20746f6b656e20616c7265616479206d696e74656400000000600082015250565b600061300c601c83611cbd565b915061301782612fd6565b602082019050919050565b6000602082019050818103600083015261303b81612fff565b905091905056fe4142434445464748494a4b4c4d4e4f505152535455565758595a6162636465666768696a6b6c6d6e6f707172737475767778797a303132333435363738392b2fa2646970667358221220a815a09c72a2c011f1f1b098c1c55a45be6a086cb0ffc11a1004495e8ee14c7c64736f6c634300080800334142434445464748494a4b4c4d4e4f505152535455565758595a6162636465666768696a6b6c6d6e6f707172737475767778797a303132333435363738392b2f",
  "devdoc": {
    "kind": "dev",
    "methods": {
      "approve(address,uint256)": {
        "details": "See {IERC721-approve}."
      },
      "balanceOf(address)": {
        "details": "See {IERC721-balanceOf}."
      },
      "getApproved(uint256)": {
        "details": "See {IERC721-getApproved}."
      },
      "isApprovedForAll(address,address)": {
        "details": "See {IERC721-isApprovedForAll}."
      },
      "name()": {
        "details": "See {IERC721Metadata-name}."
      },
      "ownerOf(uint256)": {
        "details": "See {IERC721-ownerOf}."
      },
      "safeTransferFrom(address,address,uint256)": {
        "details": "See {IERC721-safeTransferFrom}."
      },
      "safeTransferFrom(address,address,uint256,bytes)": {
        "details": "See {IERC721-safeTransferFrom}."
      },
      "setApprovalForAll(address,bool)": {
        "details": "See {IERC721-setApprovalForAll}."
      },
      "supportsInterface(bytes4)": {
        "details": "See {IERC165-supportsInterface}."
      },
      "symbol()": {
        "details": "See {IERC721Metadata-symbol}."
      },
      "tokenURI(uint256)": {
        "details": "See {IERC721Metadata-tokenURI}."
      },
      "transferFrom(address,address,uint256)": {
        "details": "See {IERC721-transferFrom}."
      }
    },
    "version": 1
  },
  "userdoc": {
    "kind": "user",
    "methods": {},
    "version": 1
  },
  "storageLayout": {
    "storage": [
      {
        "astId": 1287,
        "contract": "contracts/DynamicSVGNFT.sol:DynamicSVGNFT",
        "label": "_name",
        "offset": 0,
        "slot": "0",
        "type": "t_string_storage"
      },
      {
        "astId": 1289,
        "contract": "contracts/DynamicSVGNFT.sol:DynamicSVGNFT",
        "label": "_symbol",
        "offset": 0,
        "slot": "1",
        "type": "t_string_storage"
      },
      {
        "astId": 1293,
        "contract": "contracts/DynamicSVGNFT.sol:DynamicSVGNFT",
        "label": "_owners",
        "offset": 0,
        "slot": "2",
        "type": "t_mapping(t_uint256,t_address)"
      },
      {
        "astId": 1297,
        "contract": "contracts/DynamicSVGNFT.sol:DynamicSVGNFT",
        "label": "_balances",
        "offset": 0,
        "slot": "3",
        "type": "t_mapping(t_address,t_uint256)"
      },
      {
        "astId": 1301,
        "contract": "contracts/DynamicSVGNFT.sol:DynamicSVGNFT",
        "label": "_tokenApprovals",
        "offset": 0,
        "slot": "4",
        "type": "t_mapping(t_uint256,t_address)"
      },
      {
        "astId": 1307,
        "contract": "contracts/DynamicSVGNFT.sol:DynamicSVGNFT",
        "label": "_operatorApprovals",
        "offset": 0,
        "slot": "5",
        "type": "t_mapping(t_address,t_mapping(t_address,t_bool))"
      },
      {
        "astId": 3114,
        "contract": "contracts/DynamicSVGNFT.sol:DynamicSVGNFT",
        "label": "s_tokenCounter",
        "offset": 0,
        "slot": "6",
        "type": "t_uint256"
      },
      {
        "astId": 3116,
        "contract": "contracts/DynamicSVGNFT.sol:DynamicSVGNFT",
        "label": "s_lowImageSVG",
        "offset": 0,
        "slot": "7",
        "type": "t_string_storage"
      },
      {
        "astId": 3118,
        "contract": "contracts/DynamicSVGNFT.sol:DynamicSVGNFT",
        "label": "s_highImageSVG",
        "offset": 0,
        "slot": "8",
        "type": "t_string_storage"
      },
      {
        "astId": 3122,
        "contract": "contracts/DynamicSVGNFT.sol:DynamicSVGNFT",
        "label": "s_tokenIdToHighPrice",
        "offset": 0,
        "slot": "9",
        "type": "t_mapping(t_uint256,t_int256)"
      }
    ],
    "types": {
      "t_address": {
        "encoding": "inplace",
        "label": "address",
        "numberOfBytes": "20"
      },
      "t_bool": {
        "encoding": "inplace",
        "label": "bool",
        "numberOfBytes": "1"
      },
      "t_int256": {
        "encoding": "inplace",
        "label": "int256",
        "numberOfBytes": "32"
      },
      "t_mapping(t_address,t_bool)": {
        "encoding": "mapping",
        "key": "t_address",
        "label": "mapping(address => bool)",
        "numberOfBytes": "32",
        "value": "t_bool"
      },
      "t_mapping(t_address,t_mapping(t_address,t_bool))": {
        "encoding": "mapping",
        "key": "t_address",
        "label": "mapping(address => mapping(address => bool))",
        "numberOfBytes": "32",
        "value": "t_mapping(t_address,t_bool)"
      },
      "t_mapping(t_address,t_uint256)": {
        "encoding": "mapping",
        "key": "t_address",
        "label": "mapping(address => uint256)",
        "numberOfBytes": "32",
        "value": "t_uint256"
      },
      "t_mapping(t_uint256,t_address)": {
        "encoding": "mapping",
        "key": "t_uint256",
        "label": "mapping(uint256 => address)",
        "numberOfBytes": "32",
        "value": "t_address"
      },
      "t_mapping(t_uint256,t_int256)": {
        "encoding": "mapping",
        "key": "t_uint256",
        "label": "mapping(uint256 => int256)",
        "numberOfBytes": "32",
        "value": "t_int256"
      },
      "t_string_storage": {
        "encoding": "bytes",
        "label": "string",
        "numberOfBytes": "32"
      },
      "t_uint256": {
        "encoding": "inplace",
        "label": "uint256",
        "numberOfBytes": "32"
      }
    }
  }
}