{
  "address": "0x07f7eecA17F17FF82b0BCE9bFA0EaE4e3ed593bF",
  "abi": [
    {
      "inputs": [
        {
          "internalType": "address",
          "name": "_vrfCoordinatorV2",
          "type": "address"
        },
        {
          "internalType": "uint64",
          "name": "_SubscriptionId",
          "type": "uint64"
        },
        {
          "internalType": "bytes32",
          "name": "_gasLane",
          "type": "bytes32"
        },
        {
          "internalType": "uint32",
          "name": "_callbackGasLimit",
          "type": "uint32"
        },
        {
          "internalType": "string[3]",
          "name": "_dogTokrenURIs",
          "type": "string[3]"
        },
        {
          "internalType": "uint256",
          "name": "_mintFee",
          "type": "uint256"
        }
      ],
      "stateMutability": "nonpayable",
      "type": "constructor"
    },
    {
      "inputs": [
        {
          "internalType": "address",
          "name": "have",
          "type": "address"
        },
        {
          "internalType": "address",
          "name": "want",
          "type": "address"
        }
      ],
      "name": "OnlyCoordinatorCanFulfill",
      "type": "error"
    },
    {
      "inputs": [],
      "name": "RandomIPFSNFT__AlreadyInitialized",
      "type": "error"
    },
    {
      "inputs": [],
      "name": "RandomIPFSNFT__NotEnoughEther",
      "type": "error"
    },
    {
      "inputs": [],
      "name": "RandomIPFSNFT__OverZero_BelowMintFee",
      "type": "error"
    },
    {
      "inputs": [],
      "name": "RandomIPFSNFT__RangeOutOfBounds",
      "type": "error"
    },
    {
      "inputs": [],
      "name": "RandomIPFSNFT__TransferFailed",
      "type": "error"
    },
    {
      "anonymous": false,
      "inputs": [
        {
          "indexed": true,
          "internalType": "address",
          "name": "owner",
          "type": "address"
        },
        {
          "indexed": true,
          "internalType": "address",
          "name": "approved",
          "type": "address"
        },
        {
          "indexed": true,
          "internalType": "uint256",
          "name": "tokenId",
          "type": "uint256"
        }
      ],
      "name": "Approval",
      "type": "event"
    },
    {
      "anonymous": false,
      "inputs": [
        {
          "indexed": true,
          "internalType": "address",
          "name": "owner",
          "type": "address"
        },
        {
          "indexed": true,
          "internalType": "address",
          "name": "operator",
          "type": "address"
        },
        {
          "indexed": false,
          "internalType": "bool",
          "name": "approved",
          "type": "bool"
        }
      ],
      "name": "ApprovalForAll",
      "type": "event"
    },
    {
      "anonymous": false,
      "inputs": [
        {
          "indexed": false,
          "internalType": "enum RandomIPFSNFT.Breed",
          "name": "dogBreed",
          "type": "uint8"
        },
        {
          "indexed": false,
          "internalType": "address",
          "name": "minter",
          "type": "address"
        }
      ],
      "name": "NFTMinted",
      "type": "event"
    },
    {
      "anonymous": false,
      "inputs": [
        {
          "indexed": true,
          "internalType": "uint256",
          "name": "requestId",
          "type": "uint256"
        },
        {
          "indexed": false,
          "internalType": "address",
          "name": "requester",
          "type": "address"
        }
      ],
      "name": "NFTRequested",
      "type": "event"
    },
    {
      "anonymous": false,
      "inputs": [
        {
          "indexed": true,
          "internalType": "address",
          "name": "previousOwner",
          "type": "address"
        },
        {
          "indexed": true,
          "internalType": "address",
          "name": "newOwner",
          "type": "address"
        }
      ],
      "name": "OwnershipTransferred",
      "type": "event"
    },
    {
      "anonymous": false,
      "inputs": [
        {
          "indexed": true,
          "internalType": "address",
          "name": "from",
          "type": "address"
        },
        {
          "indexed": true,
          "internalType": "address",
          "name": "to",
          "type": "address"
        },
        {
          "indexed": true,
          "internalType": "uint256",
          "name": "tokenId",
          "type": "uint256"
        }
      ],
      "name": "Transfer",
      "type": "event"
    },
    {
      "inputs": [
        {
          "internalType": "address",
          "name": "to",
          "type": "address"
        },
        {
          "internalType": "uint256",
          "name": "tokenId",
          "type": "uint256"
        }
      ],
      "name": "approve",
      "outputs": [],
      "stateMutability": "nonpayable",
      "type": "function"
    },
    {
      "inputs": [
        {
          "internalType": "address",
          "name": "owner",
          "type": "address"
        }
      ],
      "name": "balanceOf",
      "outputs": [
        {
          "internalType": "uint256",
          "name": "",
          "type": "uint256"
        }
      ],
      "stateMutability": "view",
      "type": "function"
    },
    {
      "inputs": [
        {
          "internalType": "uint256",
          "name": "tokenId",
          "type": "uint256"
        }
      ],
      "name": "getApproved",
      "outputs": [
        {
          "internalType": "address",
          "name": "",
          "type": "address"
        }
      ],
      "stateMutability": "view",
      "type": "function"
    },
    {
      "inputs": [
        {
          "internalType": "uint256",
          "name": "_moddedRng",
          "type": "uint256"
        }
      ],
      "name": "getBreedFromModdedRng",
      "outputs": [
        {
          "internalType": "enum RandomIPFSNFT.Breed",
          "name": "",
          "type": "uint8"
        }
      ],
      "stateMutability": "pure",
      "type": "function"
    },
    {
      "inputs": [],
      "name": "getChanceArray",
      "outputs": [
        {
          "internalType": "uint256[3]",
          "name": "",
          "type": "uint256[3]"
        }
      ],
      "stateMutability": "pure",
      "type": "function"
    },
    {
      "inputs": [
        {
          "internalType": "uint256",
          "name": "index",
          "type": "uint256"
        }
      ],
      "name": "getDogTokenURIs",
      "outputs": [
        {
          "internalType": "string",
          "name": "",
          "type": "string"
        }
      ],
      "stateMutability": "view",
      "type": "function"
    },
    {
      "inputs": [],
      "name": "getInitialized",
      "outputs": [
        {
          "internalType": "bool",
          "name": "",
          "type": "bool"
        }
      ],
      "stateMutability": "view",
      "type": "function"
    },
    {
      "inputs": [],
      "name": "getMintFee",
      "outputs": [
        {
          "internalType": "uint256",
          "name": "",
          "type": "uint256"
        }
      ],
      "stateMutability": "view",
      "type": "function"
    },
    {
      "inputs": [],
      "name": "getTokenCounter",
      "outputs": [
        {
          "internalType": "uint256",
          "name": "",
          "type": "uint256"
        }
      ],
      "stateMutability": "view",
      "type": "function"
    },
    {
      "inputs": [
        {
          "internalType": "address",
          "name": "owner",
          "type": "address"
        },
        {
          "internalType": "address",
          "name": "operator",
          "type": "address"
        }
      ],
      "name": "isApprovedForAll",
      "outputs": [
        {
          "internalType": "bool",
          "name": "",
          "type": "bool"
        }
      ],
      "stateMutability": "view",
      "type": "function"
    },
    {
      "inputs": [],
      "name": "name",
      "outputs": [
        {
          "internalType": "string",
          "name": "",
          "type": "string"
        }
      ],
      "stateMutability": "view",
      "type": "function"
    },
    {
      "inputs": [],
      "name": "owner",
      "outputs": [
        {
          "internalType": "address",
          "name": "",
          "type": "address"
        }
      ],
      "stateMutability": "view",
      "type": "function"
    },
    {
      "inputs": [
        {
          "internalType": "uint256",
          "name": "tokenId",
          "type": "uint256"
        }
      ],
      "name": "ownerOf",
      "outputs": [
        {
          "internalType": "address",
          "name": "",
          "type": "address"
        }
      ],
      "stateMutability": "view",
      "type": "function"
    },
    {
      "inputs": [
        {
          "internalType": "uint256",
          "name": "requestId",
          "type": "uint256"
        },
        {
          "internalType": "uint256[]",
          "name": "randomWords",
          "type": "uint256[]"
        }
      ],
      "name": "rawFulfillRandomWords",
      "outputs": [],
      "stateMutability": "nonpayable",
      "type": "function"
    },
    {
      "inputs": [],
      "name": "renounceOwnership",
      "outputs": [],
      "stateMutability": "nonpayable",
      "type": "function"
    },
    {
      "inputs": [],
      "name": "requestNft",
      "outputs": [
        {
          "internalType": "uint256",
          "name": "requestId",
          "type": "uint256"
        }
      ],
      "stateMutability": "payable",
      "type": "function"
    },
    {
      "inputs": [
        {
          "internalType": "uint256",
          "name": "",
          "type": "uint256"
        }
      ],
      "name": "s_requestIdToSender",
      "outputs": [
        {
          "internalType": "address",
          "name": "",
          "type": "address"
        }
      ],
      "stateMutability": "view",
      "type": "function"
    },
    {
      "inputs": [],
      "name": "s_tokenCounter",
      "outputs": [
        {
          "internalType": "uint256",
          "name": "",
          "type": "uint256"
        }
      ],
      "stateMutability": "view",
      "type": "function"
    },
    {
      "inputs": [
        {
          "internalType": "address",
          "name": "from",
          "type": "address"
        },
        {
          "internalType": "address",
          "name": "to",
          "type": "address"
        },
        {
          "internalType": "uint256",
          "name": "tokenId",
          "type": "uint256"
        }
      ],
      "name": "safeTransferFrom",
      "outputs": [],
      "stateMutability": "nonpayable",
      "type": "function"
    },
    {
      "inputs": [
        {
          "internalType": "address",
          "name": "from",
          "type": "address"
        },
        {
          "internalType": "address",
          "name": "to",
          "type": "address"
        },
        {
          "internalType": "uint256",
          "name": "tokenId",
          "type": "uint256"
        },
        {
          "internalType": "bytes",
          "name": "_data",
          "type": "bytes"
        }
      ],
      "name": "safeTransferFrom",
      "outputs": [],
      "stateMutability": "nonpayable",
      "type": "function"
    },
    {
      "inputs": [
        {
          "internalType": "address",
          "name": "operator",
          "type": "address"
        },
        {
          "internalType": "bool",
          "name": "approved",
          "type": "bool"
        }
      ],
      "name": "setApprovalForAll",
      "outputs": [],
      "stateMutability": "nonpayable",
      "type": "function"
    },
    {
      "inputs": [
        {
          "internalType": "bytes4",
          "name": "interfaceId",
          "type": "bytes4"
        }
      ],
      "name": "supportsInterface",
      "outputs": [
        {
          "internalType": "bool",
          "name": "",
          "type": "bool"
        }
      ],
      "stateMutability": "view",
      "type": "function"
    },
    {
      "inputs": [],
      "name": "symbol",
      "outputs": [
        {
          "internalType": "string",
          "name": "",
          "type": "string"
        }
      ],
      "stateMutability": "view",
      "type": "function"
    },
    {
      "inputs": [
        {
          "internalType": "uint256",
          "name": "tokenId",
          "type": "uint256"
        }
      ],
      "name": "tokenURI",
      "outputs": [
        {
          "internalType": "string",
          "name": "",
          "type": "string"
        }
      ],
      "stateMutability": "view",
      "type": "function"
    },
    {
      "inputs": [
        {
          "internalType": "address",
          "name": "from",
          "type": "address"
        },
        {
          "internalType": "address",
          "name": "to",
          "type": "address"
        },
        {
          "internalType": "uint256",
          "name": "tokenId",
          "type": "uint256"
        }
      ],
      "name": "transferFrom",
      "outputs": [],
      "stateMutability": "nonpayable",
      "type": "function"
    },
    {
      "inputs": [
        {
          "internalType": "address",
          "name": "newOwner",
          "type": "address"
        }
      ],
      "name": "transferOwnership",
      "outputs": [],
      "stateMutability": "nonpayable",
      "type": "function"
    },
    {
      "inputs": [],
      "name": "withdraw",
      "outputs": [],
      "stateMutability": "nonpayable",
      "type": "function"
    }
  ],
  "transactionHash": "0x5987ff39e1116f73acc3ba0c0bd288c90ce0949cf35e055afa2c475794d61672",
  "args": [
    "0x8103B0A8A00be2DDC778e6e7eaa21791Cd364625",
    "2426",
    "0x474e34a077df58807dbe9c96d3c009b23b3c6d0cce433e59bbf5b34f823bc56c",
    "500000",
    [
      "ipfs://QmTWcebDtejAzUbrgL6PAUgL9bbdeXtqb1XW31vUpWPX5F",
      "ipfs://QmYC9kBHtv7LVyaRLUSjM6iykhF42SkVtuxyYt4FG82psS",
      "ipfs://Qmf2QWbJWTmckeaENjPk3zqZrh7H4AuGdBRjXLiPVPFisK"
    ],
    "10000000000000000"
  ],
  "numDeployments": 1,
  "solcInputHash": "ae59c33fb238476c8519e6012b457efc",
  "bytecode": "0x6101406040523480156200001257600080fd5b5060405162004af238038062004af283398181016040528101906200003891906200088a565b6040518060400160405280600f81526020017f52616e646f6d2049504653204e465400000000000000000000000000000000008152506040518060400160405280600381526020017f52494e0000000000000000000000000000000000000000000000000000000000815250878073ffffffffffffffffffffffffffffffffffffffff1660808173ffffffffffffffffffffffffffffffffffffffff1660601b81525050508160009080519060200190620000f59291906200031d565b5080600190805190602001906200010e9291906200031d565b5050506200013162000125620001d560201b60201c565b620001dd60201b60201c565b8573ffffffffffffffffffffffffffffffffffffffff1660a08173ffffffffffffffffffffffffffffffffffffffff1660601b815250508360c081815250508467ffffffffffffffff1660e08167ffffffffffffffff1660c01b815250508061012081815250508263ffffffff166101008163ffffffff1660e01b81525050620001c182620002a360201b60201c565b6000600881905550505050505050620009aa565b600033905090565b6000600760009054906101000a900473ffffffffffffffffffffffffffffffffffffffff16905081600760006101000a81548173ffffffffffffffffffffffffffffffffffffffff021916908373ffffffffffffffffffffffffffffffffffffffff1602179055508173ffffffffffffffffffffffffffffffffffffffff168173ffffffffffffffffffffffffffffffffffffffff167f8be0079c531659141344cd1fd0a4f28419497f9722a3daafe3b4186f6b6457e060405160405180910390a35050565b600a60009054906101000a900460ff1615620002eb576040517fa6ed0f8b00000000000000000000000000000000000000000000000000000000815260040160405180910390fd5b806009906003620002fe929190620003ae565b506001600a60006101000a81548160ff02191690831515021790555050565b8280546200032b9062000974565b90600052602060002090601f0160209004810192826200034f57600085556200039b565b82601f106200036a57805160ff19168380011785556200039b565b828001600101855582156200039b579182015b828111156200039a5782518255916020019190600101906200037d565b5b509050620003aa919062000415565b5090565b82805482825590600052602060002090810192821562000402579160200282015b8281111562000401578251829080519060200190620003f09291906200031d565b5091602001919060010190620003cf565b5b50905062000411919062000434565b5090565b5b808211156200043057600081600090555060010162000416565b5090565b5b808211156200045857600081816200044e91906200045c565b5060010162000435565b5090565b5080546200046a9062000974565b6000825580601f106200047e57506200049f565b601f0160209004906000526020600020908101906200049e919062000415565b5b50565b6000604051905090565b600080fd5b600080fd5b600073ffffffffffffffffffffffffffffffffffffffff82169050919050565b6000620004e382620004b6565b9050919050565b620004f581620004d6565b81146200050157600080fd5b50565b6000815190506200051581620004ea565b92915050565b600067ffffffffffffffff82169050919050565b6200053a816200051b565b81146200054657600080fd5b50565b6000815190506200055a816200052f565b92915050565b6000819050919050565b620005758162000560565b81146200058157600080fd5b50565b60008151905062000595816200056a565b92915050565b600063ffffffff82169050919050565b620005b6816200059b565b8114620005c257600080fd5b50565b600081519050620005d681620005ab565b92915050565b600080fd5b6000601f19601f8301169050919050565b7f4e487b7100000000000000000000000000000000000000000000000000000000600052604160045260246000fd5b6200062c82620005e1565b810181811067ffffffffffffffff821117156200064e576200064d620005f2565b5b80604052505050565b600062000663620004a2565b905062000671828262000621565b919050565b600067ffffffffffffffff821115620006945762000693620005f2565b5b602082029050919050565b600080fd5b600080fd5b600067ffffffffffffffff821115620006c757620006c6620005f2565b5b620006d282620005e1565b9050602081019050919050565b60005b83811015620006ff578082015181840152602081019050620006e2565b838111156200070f576000848401525b50505050565b60006200072c6200072684620006a9565b62000657565b9050828152602081018484840111156200074b576200074a620006a4565b5b62000758848285620006df565b509392505050565b600082601f830112620007785762000777620005dc565b5b81516200078a84826020860162000715565b91505092915050565b6000620007aa620007a48462000676565b62000657565b90508060208402830185811115620007c757620007c66200069f565b5b835b818110156200081557805167ffffffffffffffff811115620007f057620007ef620005dc565b5b808601620007ff898262000760565b85526020850194505050602081019050620007c9565b5050509392505050565b600082601f830112620008375762000836620005dc565b5b60036200084684828562000793565b91505092915050565b6000819050919050565b62000864816200084f565b81146200087057600080fd5b50565b600081519050620008848162000859565b92915050565b60008060008060008060c08789031215620008aa57620008a9620004ac565b5b6000620008ba89828a0162000504565b9650506020620008cd89828a0162000549565b9550506040620008e089828a0162000584565b9450506060620008f389828a01620005c5565b935050608087015167ffffffffffffffff811115620009175762000916620004b1565b5b6200092589828a016200081f565b92505060a06200093889828a0162000873565b9150509295509295509295565b7f4e487b7100000000000000000000000000000000000000000000000000000000600052602260045260246000fd5b600060028204905060018216806200098d57607f821691505b60208210811415620009a457620009a362000945565b5b50919050565b60805160601c60a05160601c60c05160e05160c01c6101005160e01c610120516140d762000a1b60003960008181610e6c01528181610e92015261120001526000611316015260006112f3015260006112d2015260006112960152600081816109a201526109f601526140d76000f3fe60806040526004361061019c5760003560e01c8063715018a6116100ec578063aa1524911161008a578063e985e9c511610064578063e985e9c5146105bb578063ee89dab4146105f8578063f2fde38b14610623578063f4eb69c31461064c5761019c565b8063aa15249114610537578063b88d4fde14610555578063c87b56dd1461057e5761019c565b806395d89b41116100c657806395d89b4114610469578063a22cb46514610494578063a36f573b146104bd578063a51cccf3146104fa5761019c565b8063715018a6146103fc5780637a5caab3146104135780638da5cb5b1461043e5761019c565b806323b872dd116101595780635dacf5f4116101335780635dacf5f41461032c5780636352211e146103575780636e02007d1461039457806370a08231146103bf5761019c565b806323b872dd146102c35780633ccfd60b146102ec57806342842e0e146103035761019c565b806301ffc9a7146101a157806306fdde03146101de578063081812fc14610209578063095ea7b3146102465780630b21a83b1461026f5780631fe543e31461029a575b600080fd5b3480156101ad57600080fd5b506101c860048036038101906101c3919061295e565b610689565b6040516101d591906129a6565b60405180910390f35b3480156101ea57600080fd5b506101f361076b565b6040516102009190612a5a565b60405180910390f35b34801561021557600080fd5b50610230600480360381019061022b9190612ab2565b6107fd565b60405161023d9190612b20565b60405180910390f35b34801561025257600080fd5b5061026d60048036038101906102689190612b67565b610882565b005b34801561027b57600080fd5b5061028461099a565b6040516102919190612bb6565b60405180910390f35b3480156102a657600080fd5b506102c160048036038101906102bc9190612d19565b6109a0565b005b3480156102cf57600080fd5b506102ea60048036038101906102e59190612d75565b610a60565b005b3480156102f857600080fd5b50610301610ac0565b005b34801561030f57600080fd5b5061032a60048036038101906103259190612d75565b610be8565b005b34801561033857600080fd5b50610341610c08565b60405161034e9190612e73565b60405180910390f35b34801561036357600080fd5b5061037e60048036038101906103799190612ab2565b610c33565b60405161038b9190612b20565b60405180910390f35b3480156103a057600080fd5b506103a9610ce5565b6040516103b69190612bb6565b60405180910390f35b3480156103cb57600080fd5b506103e660048036038101906103e19190612e8e565b610cef565b6040516103f39190612bb6565b60405180910390f35b34801561040857600080fd5b50610411610da7565b005b34801561041f57600080fd5b50610428610e2f565b6040516104359190612bb6565b60405180910390f35b34801561044a57600080fd5b50610453610eb6565b6040516104609190612b20565b60405180910390f35b34801561047557600080fd5b5061047e610ee0565b60405161048b9190612a5a565b60405180910390f35b3480156104a057600080fd5b506104bb60048036038101906104b69190612ee7565b610f72565b005b3480156104c957600080fd5b506104e460048036038101906104df9190612ab2565b6110f3565b6040516104f19190612b20565b60405180910390f35b34801561050657600080fd5b50610521600480360381019061051c9190612ab2565b611126565b60405161052e9190612f9e565b60405180910390f35b61053f6111f2565b60405161054c9190612bb6565b60405180910390f35b34801561056157600080fd5b5061057c6004803603810190610577919061306e565b61148d565b005b34801561058a57600080fd5b506105a560048036038101906105a09190612ab2565b6114ef565b6040516105b29190612a5a565b60405180910390f35b3480156105c757600080fd5b506105e260048036038101906105dd91906130f1565b611641565b6040516105ef91906129a6565b60405180910390f35b34801561060457600080fd5b5061060d6116d5565b60405161061a91906129a6565b60405180910390f35b34801561062f57600080fd5b5061064a60048036038101906106459190612e8e565b6116ec565b005b34801561065857600080fd5b50610673600480360381019061066e9190612ab2565b6117e4565b6040516106809190612a5a565b60405180910390f35b60007f80ac58cd000000000000000000000000000000000000000000000000000000007bffffffffffffffffffffffffffffffffffffffffffffffffffffffff1916827bffffffffffffffffffffffffffffffffffffffffffffffffffffffff1916148061075457507f5b5e139f000000000000000000000000000000000000000000000000000000007bffffffffffffffffffffffffffffffffffffffffffffffffffffffff1916827bffffffffffffffffffffffffffffffffffffffffffffffffffffffff1916145b80610764575061076382611894565b5b9050919050565b60606000805461077a90613160565b80601f01602080910402602001604051908101604052809291908181526020018280546107a690613160565b80156107f35780601f106107c8576101008083540402835291602001916107f3565b820191906000526020600020905b8154815290600101906020018083116107d657829003601f168201915b5050505050905090565b6000610808826118fe565b610847576040517f08c379a000000000000000000000000000000000000000000000000000000000815260040161083e90613204565b60405180910390fd5b6004600083815260200190815260200160002060009054906101000a900473ffffffffffffffffffffffffffffffffffffffff169050919050565b600061088d82610c33565b90508073ffffffffffffffffffffffffffffffffffffffff168373ffffffffffffffffffffffffffffffffffffffff1614156108fe576040517f08c379a00000000000000000000000000000000000000000000000000000000081526004016108f590613296565b60405180910390fd5b8073ffffffffffffffffffffffffffffffffffffffff1661091d61196a565b73ffffffffffffffffffffffffffffffffffffffff16148061094c575061094b8161094661196a565b611641565b5b61098b576040517f08c379a000000000000000000000000000000000000000000000000000000000815260040161098290613328565b60405180910390fd5b6109958383611972565b505050565b60085481565b7f000000000000000000000000000000000000000000000000000000000000000073ffffffffffffffffffffffffffffffffffffffff163373ffffffffffffffffffffffffffffffffffffffff1614610a5257337f00000000000000000000000000000000000000000000000000000000000000006040517f1cf993f4000000000000000000000000000000000000000000000000000000008152600401610a49929190613348565b60405180910390fd5b610a5c8282611a2b565b5050565b610a71610a6b61196a565b82611be7565b610ab0576040517f08c379a0000000000000000000000000000000000000000000000000000000008152600401610aa7906133e3565b60405180910390fd5b610abb838383611cc5565b505050565b610ac861196a565b73ffffffffffffffffffffffffffffffffffffffff16610ae6610eb6565b73ffffffffffffffffffffffffffffffffffffffff1614610b3c576040517f08c379a0000000000000000000000000000000000000000000000000000000008152600401610b339061344f565b60405180910390fd5b600047905060003373ffffffffffffffffffffffffffffffffffffffff1682604051610b67906134a0565b60006040518083038185875af1925050503d8060008114610ba4576040519150601f19603f3d011682016040523d82523d6000602084013e610ba9565b606091505b5050905080610be4576040517fff2f968b00000000000000000000000000000000000000000000000000000000815260040160405180910390fd5b5050565b610c038383836040518060200160405280600081525061148d565b505050565b610c1061282d565b6040518060600160405280600a8152602001601e81526020016064815250905090565b6000806002600084815260200190815260200160002060009054906101000a900473ffffffffffffffffffffffffffffffffffffffff169050600073ffffffffffffffffffffffffffffffffffffffff168173ffffffffffffffffffffffffffffffffffffffff161415610cdc576040517f08c379a0000000000000000000000000000000000000000000000000000000008152600401610cd390613527565b60405180910390fd5b80915050919050565b6000600854905090565b60008073ffffffffffffffffffffffffffffffffffffffff168273ffffffffffffffffffffffffffffffffffffffff161415610d60576040517f08c379a0000000000000000000000000000000000000000000000000000000008152600401610d57906135b9565b60405180910390fd5b600360008373ffffffffffffffffffffffffffffffffffffffff1673ffffffffffffffffffffffffffffffffffffffff168152602001908152602001600020549050919050565b610daf61196a565b73ffffffffffffffffffffffffffffffffffffffff16610dcd610eb6565b73ffffffffffffffffffffffffffffffffffffffff1614610e23576040517f08c379a0000000000000000000000000000000000000000000000000000000008152600401610e1a9061344f565b60405180910390fd5b610e2d6000611f21565b565b6000610e906040518060400160405280600c81526020017f4d696e74204665653a20257300000000000000000000000000000000000000008152507f0000000000000000000000000000000000000000000000000000000000000000611fe7565b7f0000000000000000000000000000000000000000000000000000000000000000905090565b6000600760009054906101000a900473ffffffffffffffffffffffffffffffffffffffff16905090565b606060018054610eef90613160565b80601f0160208091040260200160405190810160405280929190818152602001828054610f1b90613160565b8015610f685780601f10610f3d57610100808354040283529160200191610f68565b820191906000526020600020905b815481529060010190602001808311610f4b57829003601f168201915b5050505050905090565b610f7a61196a565b73ffffffffffffffffffffffffffffffffffffffff168273ffffffffffffffffffffffffffffffffffffffff161415610fe8576040517f08c379a0000000000000000000000000000000000000000000000000000000008152600401610fdf90613625565b60405180910390fd5b8060056000610ff561196a565b73ffffffffffffffffffffffffffffffffffffffff1673ffffffffffffffffffffffffffffffffffffffff16815260200190815260200160002060008473ffffffffffffffffffffffffffffffffffffffff1673ffffffffffffffffffffffffffffffffffffffff16815260200190815260200160002060006101000a81548160ff0219169083151502179055508173ffffffffffffffffffffffffffffffffffffffff166110a261196a565b73ffffffffffffffffffffffffffffffffffffffff167f17307eab39ab6107e8899845ad3d59bd9653f200f220920489ca2b5937696c31836040516110e791906129a6565b60405180910390a35050565b600b6020528060005260406000206000915054906101000a900473ffffffffffffffffffffffffffffffffffffffff1681565b600080600090506000611137610c08565b905060005b60038110156111ba5782851015801561116b575081816003811061116357611162613645565b5b602002015185105b1561118d5780600281111561118357611182612f27565b5b93505050506111ed565b8181600381106111a05761119f613645565b5b6020020151925080806111b2906136a3565b91505061113c565b506040517f4b145a0700000000000000000000000000000000000000000000000000000000815260040160405180910390fd5b919050565b6000803411801561122257507f000000000000000000000000000000000000000000000000000000000000000034105b15611259576040517f060f614f00000000000000000000000000000000000000000000000000000000815260040160405180910390fd5b6000341415611294576040517fb1f671f600000000000000000000000000000000000000000000000000000000815260040160405180910390fd5b7f000000000000000000000000000000000000000000000000000000000000000073ffffffffffffffffffffffffffffffffffffffff16635d3b1d307f00000000000000000000000000000000000000000000000000000000000000007f000000000000000000000000000000000000000000000000000000000000000060037f000000000000000000000000000000000000000000000000000000000000000060016040518663ffffffff1660e01b8152600401611357959493929190613764565b602060405180830381600087803b15801561137157600080fd5b505af1158015611385573d6000803e3d6000fd5b505050506040513d601f19601f820116820180604052508101906113a991906137cc565b905033600b600083815260200190815260200160002060006101000a81548173ffffffffffffffffffffffffffffffffffffffff021916908373ffffffffffffffffffffffffffffffffffffffff16021790555061145260405180606001604052806032815260200161407060329139600b600084815260200190815260200160002060009054906101000a900473ffffffffffffffffffffffffffffffffffffffff16612083565b807f4e1c2f1eae56e29ec039a2b882eec626e6c420ed5a5b93a203c8b8b695e911b1336040516114829190612b20565b60405180910390a290565b61149e61149861196a565b83611be7565b6114dd576040517f08c379a00000000000000000000000000000000000000000000000000000000081526004016114d4906133e3565b60405180910390fd5b6114e98484848461211f565b50505050565b60606114fa826118fe565b611539576040517f08c379a00000000000000000000000000000000000000000000000000000000081526004016115309061386b565b60405180910390fd5b600060066000848152602001908152602001600020805461155990613160565b80601f016020809104026020016040519081016040528092919081815260200182805461158590613160565b80156115d25780601f106115a7576101008083540402835291602001916115d2565b820191906000526020600020905b8154815290600101906020018083116115b557829003601f168201915b5050505050905060006115e361217b565b90506000815114156115f957819250505061163c565b60008251111561162e5780826040516020016116169291906138c7565b6040516020818303038152906040529250505061163c565b61163784612192565b925050505b919050565b6000600560008473ffffffffffffffffffffffffffffffffffffffff1673ffffffffffffffffffffffffffffffffffffffff16815260200190815260200160002060008373ffffffffffffffffffffffffffffffffffffffff1673ffffffffffffffffffffffffffffffffffffffff16815260200190815260200160002060009054906101000a900460ff16905092915050565b6000600a60009054906101000a900460ff16905090565b6116f461196a565b73ffffffffffffffffffffffffffffffffffffffff16611712610eb6565b73ffffffffffffffffffffffffffffffffffffffff1614611768576040517f08c379a000000000000000000000000000000000000000000000000000000000815260040161175f9061344f565b60405180910390fd5b600073ffffffffffffffffffffffffffffffffffffffff168173ffffffffffffffffffffffffffffffffffffffff1614156117d8576040517f08c379a00000000000000000000000000000000000000000000000000000000081526004016117cf9061395d565b60405180910390fd5b6117e181611f21565b50565b6060600982815481106117fa576117f9613645565b5b90600052602060002001805461180f90613160565b80601f016020809104026020016040519081016040528092919081815260200182805461183b90613160565b80156118885780601f1061185d57610100808354040283529160200191611888565b820191906000526020600020905b81548152906001019060200180831161186b57829003601f168201915b50505050509050919050565b60007f01ffc9a7000000000000000000000000000000000000000000000000000000007bffffffffffffffffffffffffffffffffffffffffffffffffffffffff1916827bffffffffffffffffffffffffffffffffffffffffffffffffffffffff1916149050919050565b60008073ffffffffffffffffffffffffffffffffffffffff166002600084815260200190815260200160002060009054906101000a900473ffffffffffffffffffffffffffffffffffffffff1673ffffffffffffffffffffffffffffffffffffffff1614159050919050565b600033905090565b816004600083815260200190815260200160002060006101000a81548173ffffffffffffffffffffffffffffffffffffffff021916908373ffffffffffffffffffffffffffffffffffffffff160217905550808273ffffffffffffffffffffffffffffffffffffffff166119e583610c33565b73ffffffffffffffffffffffffffffffffffffffff167f8c5be1e5ebec7d5bd14f71427d1e84f3dd0314c0f7b2291e5b200ac8c7c3b92560405160405180910390a45050565b6000600b600084815260200190815260200160002060009054906101000a900473ffffffffffffffffffffffffffffffffffffffff169050600060085490506001600854611a79919061397d565b600881905550611aa16040518060600160405280602781526020016140496027913983612083565b6000606484600081518110611ab957611ab8613645565b5b6020026020010151611acb9190613a02565b90506000611ad882611126565b9050611ae48484612239565b611ba6836009836002811115611afd57611afc612f27565b5b81548110611b0e57611b0d613645565b5b906000526020600020018054611b2390613160565b80601f0160208091040260200160405190810160405280929190818152602001828054611b4f90613160565b8015611b9c5780601f10611b7157610100808354040283529160200191611b9c565b820191906000526020600020905b815481529060010190602001808311611b7f57829003601f168201915b5050505050612257565b7fab79897476febbd649710b1bd1dc3e93a316d3dee65f65b022ab89a4b7e206b58185604051611bd7929190613a33565b60405180910390a1505050505050565b6000611bf2826118fe565b611c31576040517f08c379a0000000000000000000000000000000000000000000000000000000008152600401611c2890613ace565b60405180910390fd5b6000611c3c83610c33565b90508073ffffffffffffffffffffffffffffffffffffffff168473ffffffffffffffffffffffffffffffffffffffff161480611cab57508373ffffffffffffffffffffffffffffffffffffffff16611c93846107fd565b73ffffffffffffffffffffffffffffffffffffffff16145b80611cbc5750611cbb8185611641565b5b91505092915050565b8273ffffffffffffffffffffffffffffffffffffffff16611ce582610c33565b73ffffffffffffffffffffffffffffffffffffffff1614611d3b576040517f08c379a0000000000000000000000000000000000000000000000000000000008152600401611d3290613b60565b60405180910390fd5b600073ffffffffffffffffffffffffffffffffffffffff168273ffffffffffffffffffffffffffffffffffffffff161415611dab576040517f08c379a0000000000000000000000000000000000000000000000000000000008152600401611da290613bf2565b60405180910390fd5b611db68383836122cb565b611dc1600082611972565b6001600360008573ffffffffffffffffffffffffffffffffffffffff1673ffffffffffffffffffffffffffffffffffffffff1681526020019081526020016000206000828254611e119190613c12565b925050819055506001600360008473ffffffffffffffffffffffffffffffffffffffff1673ffffffffffffffffffffffffffffffffffffffff1681526020019081526020016000206000828254611e68919061397d565b92505081905550816002600083815260200190815260200160002060006101000a81548173ffffffffffffffffffffffffffffffffffffffff021916908373ffffffffffffffffffffffffffffffffffffffff160217905550808273ffffffffffffffffffffffffffffffffffffffff168473ffffffffffffffffffffffffffffffffffffffff167fddf252ad1be2c89b69c2b068fc378daa952ba7f163c4a11628f55a4df523b3ef60405160405180910390a4505050565b6000600760009054906101000a900473ffffffffffffffffffffffffffffffffffffffff16905081600760006101000a81548173ffffffffffffffffffffffffffffffffffffffff021916908373ffffffffffffffffffffffffffffffffffffffff1602179055508173ffffffffffffffffffffffffffffffffffffffff168173ffffffffffffffffffffffffffffffffffffffff167f8be0079c531659141344cd1fd0a4f28419497f9722a3daafe3b4186f6b6457e060405160405180910390a35050565b61207f8282604051602401611ffd929190613c46565b6040516020818303038152906040527fb60e72cc000000000000000000000000000000000000000000000000000000007bffffffffffffffffffffffffffffffffffffffffffffffffffffffff19166020820180517bffffffffffffffffffffffffffffffffffffffffffffffffffffffff83818316178352505050506122d0565b5050565b61211b8282604051602401612099929190613c76565b6040516020818303038152906040527f319af333000000000000000000000000000000000000000000000000000000007bffffffffffffffffffffffffffffffffffffffffffffffffffffffff19166020820180517bffffffffffffffffffffffffffffffffffffffffffffffffffffffff83818316178352505050506122d0565b5050565b61212a848484611cc5565b612136848484846122f9565b612175576040517f08c379a000000000000000000000000000000000000000000000000000000000815260040161216c90613d18565b60405180910390fd5b50505050565b606060405180602001604052806000815250905090565b606061219d826118fe565b6121dc576040517f08c379a00000000000000000000000000000000000000000000000000000000081526004016121d390613daa565b60405180910390fd5b60006121e661217b565b905060008151116122065760405180602001604052806000815250612231565b8061221084612490565b6040516020016122219291906138c7565b6040516020818303038152906040525b915050919050565b6122538282604051806020016040528060008152506125f1565b5050565b612260826118fe565b61229f576040517f08c379a000000000000000000000000000000000000000000000000000000000815260040161229690613e3c565b60405180910390fd5b806006600084815260200190815260200160002090805190602001906122c692919061284f565b505050565b505050565b60008151905060006a636f6e736f6c652e6c6f679050602083016000808483855afa5050505050565b600061231a8473ffffffffffffffffffffffffffffffffffffffff1661264c565b15612483578373ffffffffffffffffffffffffffffffffffffffff1663150b7a0261234361196a565b8786866040518563ffffffff1660e01b81526004016123659493929190613eb1565b602060405180830381600087803b15801561237f57600080fd5b505af19250505080156123b057506040513d601f19601f820116820180604052508101906123ad9190613f12565b60015b612433573d80600081146123e0576040519150601f19603f3d011682016040523d82523d6000602084013e6123e5565b606091505b5060008151141561242b576040517f08c379a000000000000000000000000000000000000000000000000000000000815260040161242290613d18565b60405180910390fd5b805181602001fd5b63150b7a0260e01b7bffffffffffffffffffffffffffffffffffffffffffffffffffffffff1916817bffffffffffffffffffffffffffffffffffffffffffffffffffffffff191614915050612488565b600190505b949350505050565b606060008214156124d8576040518060400160405280600181526020017f300000000000000000000000000000000000000000000000000000000000000081525090506125ec565b600082905060005b6000821461250a5780806124f3906136a3565b915050600a826125039190613f3f565b91506124e0565b60008167ffffffffffffffff81111561252657612525612bd6565b5b6040519080825280601f01601f1916602001820160405280156125585781602001600182028036833780820191505090505b5090505b600085146125e5576001826125719190613c12565b9150600a856125809190613a02565b603061258c919061397d565b60f81b8183815181106125a2576125a1613645565b5b60200101907effffffffffffffffffffffffffffffffffffffffffffffffffffffffffffff1916908160001a905350600a856125de9190613f3f565b945061255c565b8093505050505b919050565b6125fb838361265f565b61260860008484846122f9565b612647576040517f08c379a000000000000000000000000000000000000000000000000000000000815260040161263e90613d18565b60405180910390fd5b505050565b600080823b905060008111915050919050565b600073ffffffffffffffffffffffffffffffffffffffff168273ffffffffffffffffffffffffffffffffffffffff1614156126cf576040517f08c379a00000000000000000000000000000000000000000000000000000000081526004016126c690613fbc565b60405180910390fd5b6126d8816118fe565b15612718576040517f08c379a000000000000000000000000000000000000000000000000000000000815260040161270f90614028565b60405180910390fd5b612724600083836122cb565b6001600360008473ffffffffffffffffffffffffffffffffffffffff1673ffffffffffffffffffffffffffffffffffffffff1681526020019081526020016000206000828254612774919061397d565b92505081905550816002600083815260200190815260200160002060006101000a81548173ffffffffffffffffffffffffffffffffffffffff021916908373ffffffffffffffffffffffffffffffffffffffff160217905550808273ffffffffffffffffffffffffffffffffffffffff16600073ffffffffffffffffffffffffffffffffffffffff167fddf252ad1be2c89b69c2b068fc378daa952ba7f163c4a11628f55a4df523b3ef60405160405180910390a45050565b6040518060600160405280600390602082028036833780820191505090505090565b82805461285b90613160565b90600052602060002090601f01602090048101928261287d57600085556128c4565b82601f1061289657805160ff19168380011785556128c4565b828001600101855582156128c4579182015b828111156128c35782518255916020019190600101906128a8565b5b5090506128d191906128d5565b5090565b5b808211156128ee5760008160009055506001016128d6565b5090565b6000604051905090565b600080fd5b600080fd5b60007fffffffff0000000000000000000000000000000000000000000000000000000082169050919050565b61293b81612906565b811461294657600080fd5b50565b60008135905061295881612932565b92915050565b600060208284031215612974576129736128fc565b5b600061298284828501612949565b91505092915050565b60008115159050919050565b6129a08161298b565b82525050565b60006020820190506129bb6000830184612997565b92915050565b600081519050919050565b600082825260208201905092915050565b60005b838110156129fb5780820151818401526020810190506129e0565b83811115612a0a576000848401525b50505050565b6000601f19601f8301169050919050565b6000612a2c826129c1565b612a3681856129cc565b9350612a468185602086016129dd565b612a4f81612a10565b840191505092915050565b60006020820190508181036000830152612a748184612a21565b905092915050565b6000819050919050565b612a8f81612a7c565b8114612a9a57600080fd5b50565b600081359050612aac81612a86565b92915050565b600060208284031215612ac857612ac76128fc565b5b6000612ad684828501612a9d565b91505092915050565b600073ffffffffffffffffffffffffffffffffffffffff82169050919050565b6000612b0a82612adf565b9050919050565b612b1a81612aff565b82525050565b6000602082019050612b356000830184612b11565b92915050565b612b4481612aff565b8114612b4f57600080fd5b50565b600081359050612b6181612b3b565b92915050565b60008060408385031215612b7e57612b7d6128fc565b5b6000612b8c85828601612b52565b9250506020612b9d85828601612a9d565b9150509250929050565b612bb081612a7c565b82525050565b6000602082019050612bcb6000830184612ba7565b92915050565b600080fd5b7f4e487b7100000000000000000000000000000000000000000000000000000000600052604160045260246000fd5b612c0e82612a10565b810181811067ffffffffffffffff82111715612c2d57612c2c612bd6565b5b80604052505050565b6000612c406128f2565b9050612c4c8282612c05565b919050565b600067ffffffffffffffff821115612c6c57612c6b612bd6565b5b602082029050602081019050919050565b600080fd5b6000612c95612c9084612c51565b612c36565b90508083825260208201905060208402830185811115612cb857612cb7612c7d565b5b835b81811015612ce15780612ccd8882612a9d565b845260208401935050602081019050612cba565b5050509392505050565b600082601f830112612d0057612cff612bd1565b5b8135612d10848260208601612c82565b91505092915050565b60008060408385031215612d3057612d2f6128fc565b5b6000612d3e85828601612a9d565b925050602083013567ffffffffffffffff811115612d5f57612d5e612901565b5b612d6b85828601612ceb565b9150509250929050565b600080600060608486031215612d8e57612d8d6128fc565b5b6000612d9c86828701612b52565b9350506020612dad86828701612b52565b9250506040612dbe86828701612a9d565b9150509250925092565b600060039050919050565b600081905092915050565b6000819050919050565b612df181612a7c565b82525050565b6000612e038383612de8565b60208301905092915050565b6000602082019050919050565b612e2581612dc8565b612e2f8184612dd3565b9250612e3a82612dde565b8060005b83811015612e6b578151612e528782612df7565b9650612e5d83612e0f565b925050600181019050612e3e565b505050505050565b6000606082019050612e886000830184612e1c565b92915050565b600060208284031215612ea457612ea36128fc565b5b6000612eb284828501612b52565b91505092915050565b612ec48161298b565b8114612ecf57600080fd5b50565b600081359050612ee181612ebb565b92915050565b60008060408385031215612efe57612efd6128fc565b5b6000612f0c85828601612b52565b9250506020612f1d85828601612ed2565b9150509250929050565b7f4e487b7100000000000000000000000000000000000000000000000000000000600052602160045260246000fd5b60038110612f6757612f66612f27565b5b50565b6000819050612f7882612f56565b919050565b6000612f8882612f6a565b9050919050565b612f9881612f7d565b82525050565b6000602082019050612fb36000830184612f8f565b92915050565b600080fd5b600067ffffffffffffffff821115612fd957612fd8612bd6565b5b612fe282612a10565b9050602081019050919050565b82818337600083830152505050565b600061301161300c84612fbe565b612c36565b90508281526020810184848401111561302d5761302c612fb9565b5b613038848285612fef565b509392505050565b600082601f83011261305557613054612bd1565b5b8135613065848260208601612ffe565b91505092915050565b60008060008060808587031215613088576130876128fc565b5b600061309687828801612b52565b94505060206130a787828801612b52565b93505060406130b887828801612a9d565b925050606085013567ffffffffffffffff8111156130d9576130d8612901565b5b6130e587828801613040565b91505092959194509250565b60008060408385031215613108576131076128fc565b5b600061311685828601612b52565b925050602061312785828601612b52565b9150509250929050565b7f4e487b7100000000000000000000000000000000000000000000000000000000600052602260045260246000fd5b6000600282049050600182168061317857607f821691505b6020821081141561318c5761318b613131565b5b50919050565b7f4552433732313a20617070726f76656420717565727920666f72206e6f6e657860008201527f697374656e7420746f6b656e0000000000000000000000000000000000000000602082015250565b60006131ee602c836129cc565b91506131f982613192565b604082019050919050565b6000602082019050818103600083015261321d816131e1565b9050919050565b7f4552433732313a20617070726f76616c20746f2063757272656e74206f776e6560008201527f7200000000000000000000000000000000000000000000000000000000000000602082015250565b60006132806021836129cc565b915061328b82613224565b604082019050919050565b600060208201905081810360008301526132af81613273565b9050919050565b7f4552433732313a20617070726f76652063616c6c6572206973206e6f74206f7760008201527f6e6572206e6f7220617070726f76656420666f7220616c6c0000000000000000602082015250565b60006133126038836129cc565b915061331d826132b6565b604082019050919050565b6000602082019050818103600083015261334181613305565b9050919050565b600060408201905061335d6000830185612b11565b61336a6020830184612b11565b9392505050565b7f4552433732313a207472616e736665722063616c6c6572206973206e6f74206f60008201527f776e6572206e6f7220617070726f766564000000000000000000000000000000602082015250565b60006133cd6031836129cc565b91506133d882613371565b604082019050919050565b600060208201905081810360008301526133fc816133c0565b9050919050565b7f4f776e61626c653a2063616c6c6572206973206e6f7420746865206f776e6572600082015250565b60006134396020836129cc565b915061344482613403565b602082019050919050565b600060208201905081810360008301526134688161342c565b9050919050565b600081905092915050565b50565b600061348a60008361346f565b91506134958261347a565b600082019050919050565b60006134ab8261347d565b9150819050919050565b7f4552433732313a206f776e657220717565727920666f72206e6f6e657869737460008201527f656e7420746f6b656e0000000000000000000000000000000000000000000000602082015250565b60006135116029836129cc565b915061351c826134b5565b604082019050919050565b6000602082019050818103600083015261354081613504565b9050919050565b7f4552433732313a2062616c616e636520717565727920666f7220746865207a6560008201527f726f206164647265737300000000000000000000000000000000000000000000602082015250565b60006135a3602a836129cc565b91506135ae82613547565b604082019050919050565b600060208201905081810360008301526135d281613596565b9050919050565b7f4552433732313a20617070726f766520746f2063616c6c657200000000000000600082015250565b600061360f6019836129cc565b915061361a826135d9565b602082019050919050565b6000602082019050818103600083015261363e81613602565b9050919050565b7f4e487b7100000000000000000000000000000000000000000000000000000000600052603260045260246000fd5b7f4e487b7100000000000000000000000000000000000000000000000000000000600052601160045260246000fd5b60006136ae82612a7c565b91507fffffffffffffffffffffffffffffffffffffffffffffffffffffffffffffffff8214156136e1576136e0613674565b5b600182019050919050565b6000819050919050565b6136ff816136ec565b82525050565b600067ffffffffffffffff82169050919050565b61372281613705565b82525050565b600061ffff82169050919050565b61373f81613728565b82525050565b600063ffffffff82169050919050565b61375e81613745565b82525050565b600060a08201905061377960008301886136f6565b6137866020830187613719565b6137936040830186613736565b6137a06060830185613755565b6137ad6080830184613755565b9695505050505050565b6000815190506137c681612a86565b92915050565b6000602082840312156137e2576137e16128fc565b5b60006137f0848285016137b7565b91505092915050565b7f45524337323155524953746f726167653a2055524920717565727920666f722060008201527f6e6f6e6578697374656e7420746f6b656e000000000000000000000000000000602082015250565b60006138556031836129cc565b9150613860826137f9565b604082019050919050565b6000602082019050818103600083015261388481613848565b9050919050565b600081905092915050565b60006138a1826129c1565b6138ab818561388b565b93506138bb8185602086016129dd565b80840191505092915050565b60006138d38285613896565b91506138df8284613896565b91508190509392505050565b7f4f776e61626c653a206e6577206f776e657220697320746865207a65726f206160008201527f6464726573730000000000000000000000000000000000000000000000000000602082015250565b60006139476026836129cc565b9150613952826138eb565b604082019050919050565b600060208201905081810360008301526139768161393a565b9050919050565b600061398882612a7c565b915061399383612a7c565b9250827fffffffffffffffffffffffffffffffffffffffffffffffffffffffffffffffff038211156139c8576139c7613674565b5b828201905092915050565b7f4e487b7100000000000000000000000000000000000000000000000000000000600052601260045260246000fd5b6000613a0d82612a7c565b9150613a1883612a7c565b925082613a2857613a276139d3565b5b828206905092915050565b6000604082019050613a486000830185612f8f565b613a556020830184612b11565b9392505050565b7f4552433732313a206f70657261746f7220717565727920666f72206e6f6e657860008201527f697374656e7420746f6b656e0000000000000000000000000000000000000000602082015250565b6000613ab8602c836129cc565b9150613ac382613a5c565b604082019050919050565b60006020820190508181036000830152613ae781613aab565b9050919050565b7f4552433732313a207472616e73666572206f6620746f6b656e2074686174206960008201527f73206e6f74206f776e0000000000000000000000000000000000000000000000602082015250565b6000613b4a6029836129cc565b9150613b5582613aee565b604082019050919050565b60006020820190508181036000830152613b7981613b3d565b9050919050565b7f4552433732313a207472616e7366657220746f20746865207a65726f2061646460008201527f7265737300000000000000000000000000000000000000000000000000000000602082015250565b6000613bdc6024836129cc565b9150613be782613b80565b604082019050919050565b60006020820190508181036000830152613c0b81613bcf565b9050919050565b6000613c1d82612a7c565b9150613c2883612a7c565b925082821015613c3b57613c3a613674565b5b828203905092915050565b60006040820190508181036000830152613c608185612a21565b9050613c6f6020830184612ba7565b9392505050565b60006040820190508181036000830152613c908185612a21565b9050613c9f6020830184612b11565b9392505050565b7f4552433732313a207472616e7366657220746f206e6f6e20455243373231526560008201527f63656976657220696d706c656d656e7465720000000000000000000000000000602082015250565b6000613d026032836129cc565b9150613d0d82613ca6565b604082019050919050565b60006020820190508181036000830152613d3181613cf5565b9050919050565b7f4552433732314d657461646174613a2055524920717565727920666f72206e6f60008201527f6e6578697374656e7420746f6b656e0000000000000000000000000000000000602082015250565b6000613d94602f836129cc565b9150613d9f82613d38565b604082019050919050565b60006020820190508181036000830152613dc381613d87565b9050919050565b7f45524337323155524953746f726167653a2055524920736574206f66206e6f6e60008201527f6578697374656e7420746f6b656e000000000000000000000000000000000000602082015250565b6000613e26602e836129cc565b9150613e3182613dca565b604082019050919050565b60006020820190508181036000830152613e5581613e19565b9050919050565b600081519050919050565b600082825260208201905092915050565b6000613e8382613e5c565b613e8d8185613e67565b9350613e9d8185602086016129dd565b613ea681612a10565b840191505092915050565b6000608082019050613ec66000830187612b11565b613ed36020830186612b11565b613ee06040830185612ba7565b8181036060830152613ef28184613e78565b905095945050505050565b600081519050613f0c81612932565b92915050565b600060208284031215613f2857613f276128fc565b5b6000613f3684828501613efd565b91505092915050565b6000613f4a82612a7c565b9150613f5583612a7c565b925082613f6557613f646139d3565b5b828204905092915050565b7f4552433732313a206d696e7420746f20746865207a65726f2061646472657373600082015250565b6000613fa66020836129cc565b9150613fb182613f70565b602082019050919050565b60006020820190508181036000830152613fd581613f99565b9050919050565b7f4552433732313a20746f6b656e20616c7265616479206d696e74656400000000600082015250565b6000614012601c836129cc565b915061401d82613fdc565b602082019050919050565b6000602082019050818103600083015261404181614005565b905091905056fe446f67204f776e657220696e2066756c66696c6c52616e646f6d576f7264732829206973202573735f726571756573744964546f53656e6465725b7265717565737449645d20696e20726571756573744e667428293a202573a26469706673582212209074a542048b01e545e8ca23d7ca83c5ed7e42964b12db081264a1287a75097864736f6c63430008080033",
  "devdoc": {
    "kind": "dev",
    "methods": {
      "approve(address,uint256)": {
        "details": "See {IERC721-approve}."
      },
      "balanceOf(address)": {
        "details": "See {IERC721-balanceOf}."
      },
      "getApproved(uint256)": {
        "details": "See {IERC721-getApproved}."
      },
      "isApprovedForAll(address,address)": {
        "details": "See {IERC721-isApprovedForAll}."
      },
      "name()": {
        "details": "See {IERC721Metadata-name}."
      },
      "owner()": {
        "details": "Returns the address of the current owner."
      },
      "ownerOf(uint256)": {
        "details": "See {IERC721-ownerOf}."
      },
      "renounceOwnership()": {
        "details": "Leaves the contract without owner. It will not be possible to call `onlyOwner` functions anymore. Can only be called by the current owner. NOTE: Renouncing ownership will leave the contract without an owner, thereby removing any functionality that is only available to the owner."
      },
      "safeTransferFrom(address,address,uint256)": {
        "details": "See {IERC721-safeTransferFrom}."
      },
      "safeTransferFrom(address,address,uint256,bytes)": {
        "details": "See {IERC721-safeTransferFrom}."
      },
      "setApprovalForAll(address,bool)": {
        "details": "See {IERC721-setApprovalForAll}."
      },
      "supportsInterface(bytes4)": {
        "details": "See {IERC165-supportsInterface}."
      },
      "symbol()": {
        "details": "See {IERC721Metadata-symbol}."
      },
      "tokenURI(uint256)": {
        "details": "See {IERC721Metadata-tokenURI}."
      },
      "transferFrom(address,address,uint256)": {
        "details": "See {IERC721-transferFrom}."
      },
      "transferOwnership(address)": {
        "details": "Transfers ownership of the contract to a new account (`newOwner`). Can only be called by the current owner."
      }
    },
    "version": 1
  },
  "userdoc": {
    "kind": "user",
    "methods": {},
    "version": 1
  },
  "storageLayout": {
    "storage": [
      {
        "astId": 283,
        "contract": "contracts/RandomIPFSNFT.sol:RandomIPFSNFT",
        "label": "_name",
        "offset": 0,
        "slot": "0",
        "type": "t_string_storage"
      },
      {
        "astId": 285,
        "contract": "contracts/RandomIPFSNFT.sol:RandomIPFSNFT",
        "label": "_symbol",
        "offset": 0,
        "slot": "1",
        "type": "t_string_storage"
      },
      {
        "astId": 289,
        "contract": "contracts/RandomIPFSNFT.sol:RandomIPFSNFT",
        "label": "_owners",
        "offset": 0,
        "slot": "2",
        "type": "t_mapping(t_uint256,t_address)"
      },
      {
        "astId": 293,
        "contract": "contracts/RandomIPFSNFT.sol:RandomIPFSNFT",
        "label": "_balances",
        "offset": 0,
        "slot": "3",
        "type": "t_mapping(t_address,t_uint256)"
      },
      {
        "astId": 297,
        "contract": "contracts/RandomIPFSNFT.sol:RandomIPFSNFT",
        "label": "_tokenApprovals",
        "offset": 0,
        "slot": "4",
        "type": "t_mapping(t_uint256,t_address)"
      },
      {
        "astId": 303,
        "contract": "contracts/RandomIPFSNFT.sol:RandomIPFSNFT",
        "label": "_operatorApprovals",
        "offset": 0,
        "slot": "5",
        "type": "t_mapping(t_address,t_mapping(t_address,t_bool))"
      },
      {
        "astId": 1220,
        "contract": "contracts/RandomIPFSNFT.sol:RandomIPFSNFT",
        "label": "_tokenURIs",
        "offset": 0,
        "slot": "6",
        "type": "t_mapping(t_uint256,t_string_storage)"
      },
      {
        "astId": 161,
        "contract": "contracts/RandomIPFSNFT.sol:RandomIPFSNFT",
        "label": "_owner",
        "offset": 0,
        "slot": "7",
        "type": "t_address"
      },
      {
        "astId": 1966,
        "contract": "contracts/RandomIPFSNFT.sol:RandomIPFSNFT",
        "label": "s_tokenCounter",
        "offset": 0,
        "slot": "8",
        "type": "t_uint256"
      },
      {
        "astId": 1972,
        "contract": "contracts/RandomIPFSNFT.sol:RandomIPFSNFT",
        "label": "s_dogTokrenURIs",
        "offset": 0,
        "slot": "9",
        "type": "t_array(t_string_storage)dyn_storage"
      },
      {
        "astId": 1974,
        "contract": "contracts/RandomIPFSNFT.sol:RandomIPFSNFT",
        "label": "s_initialized",
        "offset": 0,
        "slot": "10",
        "type": "t_bool"
      },
      {
        "astId": 1978,
        "contract": "contracts/RandomIPFSNFT.sol:RandomIPFSNFT",
        "label": "s_requestIdToSender",
        "offset": 0,
        "slot": "11",
        "type": "t_mapping(t_uint256,t_address)"
      }
    ],
    "types": {
      "t_address": {
        "encoding": "inplace",
        "label": "address",
        "numberOfBytes": "20"
      },
      "t_array(t_string_storage)dyn_storage": {
        "base": "t_string_storage",
        "encoding": "dynamic_array",
        "label": "string[]",
        "numberOfBytes": "32"
      },
      "t_bool": {
        "encoding": "inplace",
        "label": "bool",
        "numberOfBytes": "1"
      },
      "t_mapping(t_address,t_bool)": {
        "encoding": "mapping",
        "key": "t_address",
        "label": "mapping(address => bool)",
        "numberOfBytes": "32",
        "value": "t_bool"
      },
      "t_mapping(t_address,t_mapping(t_address,t_bool))": {
        "encoding": "mapping",
        "key": "t_address",
        "label": "mapping(address => mapping(address => bool))",
        "numberOfBytes": "32",
        "value": "t_mapping(t_address,t_bool)"
      },
      "t_mapping(t_address,t_uint256)": {
        "encoding": "mapping",
        "key": "t_address",
        "label": "mapping(address => uint256)",
        "numberOfBytes": "32",
        "value": "t_uint256"
      },
      "t_mapping(t_uint256,t_address)": {
        "encoding": "mapping",
        "key": "t_uint256",
        "label": "mapping(uint256 => address)",
        "numberOfBytes": "32",
        "value": "t_address"
      },
      "t_mapping(t_uint256,t_string_storage)": {
        "encoding": "mapping",
        "key": "t_uint256",
        "label": "mapping(uint256 => string)",
        "numberOfBytes": "32",
        "value": "t_string_storage"
      },
      "t_string_storage": {
        "encoding": "bytes",
        "label": "string",
        "numberOfBytes": "32"
      },
      "t_uint256": {
        "encoding": "inplace",
        "label": "uint256",
        "numberOfBytes": "32"
      }
    }
  }
}